{
  "contractName": "SplitStealContract",
  "abi": [
    {
      "constant": false,
      "inputs": [],
      "name": "startRegistration",
      "outputs": [],
      "payable": false,
      "stateMutability": "nonpayable",
      "type": "function"
    },
    {
      "constant": true,
      "inputs": [],
      "name": "getD",
      "outputs": [
        {
          "name": "_d",
          "type": "uint256"
        }
      ],
      "payable": false,
      "stateMutability": "view",
      "type": "function"
    },
    {
      "constant": false,
      "inputs": [
        {
          "name": "_player",
          "type": "address"
        }
      ],
      "name": "suspend",
      "outputs": [
        {
          "name": "_suspended",
          "type": "bool"
        }
      ],
      "payable": false,
      "stateMutability": "nonpayable",
      "type": "function"
    },
    {
      "constant": false,
      "inputs": [],
      "name": "startPlay",
      "outputs": [],
      "payable": false,
      "stateMutability": "nonpayable",
      "type": "function"
    },
    {
      "constant": true,
      "inputs": [],
      "name": "getN1",
      "outputs": [
        {
          "name": "_n1",
          "type": "uint256"
        }
      ],
      "payable": false,
      "stateMutability": "view",
      "type": "function"
    },
    {
      "constant": true,
      "inputs": [],
      "name": "getTotalGames",
      "outputs": [
        {
          "name": "_size",
          "type": "uint256"
        }
      ],
      "payable": false,
      "stateMutability": "view",
      "type": "function"
    },
    {
      "constant": true,
      "inputs": [
        {
          "name": "gameNumber",
          "type": "uint256"
        }
      ],
      "name": "getOpponent",
      "outputs": [
        {
          "name": "_opponent",
          "type": "address"
        }
      ],
      "payable": false,
      "stateMutability": "view",
      "type": "function"
    },
    {
      "constant": false,
      "inputs": [
        {
          "name": "_n1",
          "type": "uint256"
        },
        {
          "name": "_n2",
          "type": "uint256"
        },
        {
          "name": "_n3",
          "type": "uint256"
        },
        {
          "name": "_d",
          "type": "uint256"
        }
      ],
      "name": "setRewardMatrix",
      "outputs": [],
      "payable": false,
      "stateMutability": "nonpayable",
      "type": "function"
    },
    {
      "constant": true,
      "inputs": [],
      "name": "getContractBalance",
      "outputs": [
        {
          "name": "_balance",
          "type": "uint256"
        }
      ],
      "payable": false,
      "stateMutability": "view",
      "type": "function"
    },
    {
      "constant": false,
      "inputs": [
        {
          "name": "_betAmount",
          "type": "uint256"
        }
      ],
      "name": "bet",
      "outputs": [
        {
          "name": "_accepted",
          "type": "bool"
        }
      ],
      "payable": true,
      "stateMutability": "payable",
      "type": "function"
    },
    {
      "constant": true,
      "inputs": [],
      "name": "getOddPlayerBonusPercent",
      "outputs": [
        {
          "name": "_oddPlayerBonusPercentage",
          "type": "uint256"
        }
      ],
      "payable": false,
      "stateMutability": "view",
      "type": "function"
    },
    {
      "constant": false,
      "inputs": [
        {
          "name": "_to",
          "type": "address"
        }
      ],
      "name": "changeOwner",
      "outputs": [],
      "payable": false,
      "stateMutability": "nonpayable",
      "type": "function"
    },
    {
      "constant": false,
      "inputs": [],
      "name": "startReveal",
      "outputs": [],
      "payable": false,
      "stateMutability": "nonpayable",
      "type": "function"
    },
    {
      "constant": false,
      "inputs": [
        {
          "name": "gameNumber",
          "type": "uint256"
        }
      ],
      "name": "claimReward",
      "outputs": [
        {
          "name": "_claimedReward",
          "type": "bool"
        }
      ],
      "payable": false,
      "stateMutability": "nonpayable",
      "type": "function"
    },
    {
      "constant": true,
      "inputs": [],
      "name": "getN3",
      "outputs": [
        {
          "name": "_n3",
          "type": "uint256"
        }
      ],
      "payable": false,
      "stateMutability": "view",
      "type": "function"
    },
    {
      "constant": false,
      "inputs": [
        {
          "name": "_choice",
          "type": "uint256"
        }
      ],
      "name": "reveal",
      "outputs": [
        {
          "name": "_accepted",
          "type": "bool"
        }
      ],
      "payable": false,
      "stateMutability": "nonpayable",
      "type": "function"
    },
    {
      "constant": false,
      "inputs": [],
      "name": "stopRegisteration",
      "outputs": [],
      "payable": false,
      "stateMutability": "nonpayable",
      "type": "function"
    },
    {
      "constant": false,
      "inputs": [],
      "name": "stopReveal",
      "outputs": [],
      "payable": false,
      "stateMutability": "nonpayable",
      "type": "function"
    },
    {
      "constant": false,
      "inputs": [
        {
          "name": "_player",
          "type": "address"
        }
      ],
      "name": "unSuspend",
      "outputs": [
        {
          "name": "_unSuspended",
          "type": "bool"
        }
      ],
      "payable": false,
      "stateMutability": "nonpayable",
      "type": "function"
    },
    {
      "constant": false,
      "inputs": [
        {
          "name": "_encryptedChoice",
          "type": "bytes32"
        }
      ],
      "name": "submit",
      "outputs": [
        {
          "name": "_accepted",
          "type": "bool"
        }
      ],
      "payable": false,
      "stateMutability": "nonpayable",
      "type": "function"
    },
    {
      "constant": false,
      "inputs": [
        {
          "name": "_percentage",
          "type": "uint256"
        }
      ],
      "name": "setOddPlayerBonusPercent",
      "outputs": [],
      "payable": false,
      "stateMutability": "nonpayable",
      "type": "function"
    },
    {
      "constant": true,
      "inputs": [],
      "name": "getN2",
      "outputs": [
        {
          "name": "_n2",
          "type": "uint256"
        }
      ],
      "payable": false,
      "stateMutability": "view",
      "type": "function"
    },
    {
      "constant": false,
      "inputs": [],
      "name": "stopPlay",
      "outputs": [],
      "payable": false,
      "stateMutability": "nonpayable",
      "type": "function"
    },
    {
      "inputs": [],
      "payable": false,
      "stateMutability": "nonpayable",
      "type": "constructor"
    },
    {
      "anonymous": false,
      "inputs": [
        {
          "indexed": true,
          "name": "_gameNumber",
          "type": "uint256"
        }
      ],
      "name": "RegisterationOpened",
      "type": "event"
    },
    {
      "anonymous": false,
      "inputs": [
        {
          "indexed": true,
          "name": "_gameNumber",
          "type": "uint256"
        },
        {
          "indexed": true,
          "name": "_player",
          "type": "address"
        },
        {
          "indexed": false,
          "name": "_betAmount",
          "type": "uint256"
        }
      ],
      "name": "Registered",
      "type": "event"
    },
    {
      "anonymous": false,
      "inputs": [
        {
          "indexed": true,
          "name": "_gameNumber",
          "type": "uint256"
        }
      ],
      "name": "RegisterationClosed",
      "type": "event"
    },
    {
      "anonymous": false,
      "inputs": [
        {
          "indexed": true,
          "name": "_gameNumber",
          "type": "uint256"
        }
      ],
      "name": "PlayStarted",
      "type": "event"
    },
    {
      "anonymous": false,
      "inputs": [
        {
          "indexed": true,
          "name": "_gameNumber",
          "type": "uint256"
        },
        {
          "indexed": false,
          "name": "_player",
          "type": "address"
        },
        {
          "indexed": false,
          "name": "_encryptedChoice",
          "type": "bytes32"
        }
      ],
      "name": "Played",
      "type": "event"
    },
    {
      "anonymous": false,
      "inputs": [
        {
          "indexed": true,
          "name": "_gameNumber",
          "type": "uint256"
        }
      ],
      "name": "PlayStopped",
      "type": "event"
    },
    {
      "anonymous": false,
      "inputs": [
        {
          "indexed": true,
          "name": "_gameNumber",
          "type": "uint256"
        }
      ],
      "name": "RevealStart",
      "type": "event"
    },
    {
      "anonymous": false,
      "inputs": [
        {
          "indexed": true,
          "name": "_gameNumber",
          "type": "uint256"
        }
      ],
      "name": "RevealStop",
      "type": "event"
    },
    {
      "anonymous": false,
      "inputs": [
        {
          "indexed": true,
          "name": "_gameNumber",
          "type": "uint256"
        },
        {
          "indexed": false,
          "name": "_to",
          "type": "address"
        },
        {
          "indexed": false,
          "name": "_amount",
          "type": "uint256"
        }
      ],
      "name": "Transferred",
      "type": "event"
    },
    {
      "anonymous": false,
      "inputs": [
        {
          "indexed": true,
          "name": "_gameNumber",
          "type": "uint256"
        },
        {
          "indexed": true,
          "name": "_player1",
          "type": "address"
        },
        {
          "indexed": true,
          "name": "_player2",
          "type": "address"
        },
        {
          "indexed": false,
          "name": "betAmount1",
          "type": "uint256"
        },
        {
          "indexed": false,
          "name": "betAmount2",
          "type": "uint256"
        }
      ],
      "name": "Paired",
      "type": "event"
    },
    {
      "anonymous": false,
      "inputs": [
        {
          "indexed": true,
          "name": "_gameNumber",
          "type": "uint256"
        },
        {
          "indexed": true,
          "name": "_player",
          "type": "address"
        },
        {
          "indexed": false,
          "name": "_encryptedChoice",
          "type": "bytes32"
        },
        {
          "indexed": false,
          "name": "_actualChoice",
          "type": "uint256"
        },
        {
          "indexed": false,
          "name": "_encryptedActualChoice",
          "type": "bytes32"
        }
      ],
      "name": "Disqualified",
      "type": "event"
    },
    {
      "anonymous": false,
      "inputs": [
        {
          "indexed": false,
          "name": "_n1",
          "type": "uint256"
        },
        {
          "indexed": false,
          "name": "_n2",
          "type": "uint256"
        },
        {
          "indexed": false,
          "name": "_n3",
          "type": "uint256"
        },
        {
          "indexed": false,
          "name": "_d",
          "type": "uint256"
        }
      ],
      "name": "NewRewardMatrix",
      "type": "event"
    },
    {
      "anonymous": false,
      "inputs": [
        {
          "indexed": false,
          "name": "_fromPercentage",
          "type": "uint256"
        },
        {
          "indexed": false,
          "name": "_toPercentage",
          "type": "uint256"
        }
      ],
      "name": "NewOddPlayerBonus",
      "type": "event"
    },
    {
      "anonymous": false,
      "inputs": [
        {
          "indexed": true,
          "name": "_player",
          "type": "address"
        }
      ],
      "name": "Suspended",
      "type": "event"
    },
    {
      "anonymous": false,
      "inputs": [
        {
          "indexed": true,
          "name": "_player",
          "type": "address"
        }
      ],
      "name": "UnSuspended",
      "type": "event"
    }
  ],
  "bytecode": "0x608060405260008060146101000a81548160ff02191690831515021790555060008060156101000a81548160ff02191690831515021790555060008060166101000a81548160ff0219169083151502179055506001600060176101000a81548160ff0219169083151502179055506601c6bf526340006001556611c37937e08000600255600a60035560016005556003600655600260075560046008553480156100a857600080fd5b50336000806101000a81548173ffffffffffffffffffffffffffffffffffffffff021916908373ffffffffffffffffffffffffffffffffffffffff160217905550612be0806100f86000396000f300608060405260043610610133576000357c0100000000000000000000000000000000000000000000000000000000900463ffffffff16806310b86695146101385780631a14ff7a1461014f578063286781c71461017a5780632b94af15146101d5578063430d889c146101ec5780635bd4349b146102175780635cd4ca9e1461024257806366ed4be4146102af5780636f9fb98a146102fa5780637365870b1461032557806380a431051461035d578063a6f9dae114610388578063ad72202b146103cb578063ae169a50146103e2578063bfa0dc5714610427578063c2ca0ac514610452578063cdabe94e14610497578063d7b91888146104ae578063d8be2838146104c5578063d9caa3d214610520578063e796b5d814610569578063efa8e33114610596578063fda567a7146105c1575b600080fd5b34801561014457600080fd5b5061014d6105d8565b005b34801561015b57600080fd5b506101646107af565b6040518082815260200191505060405180910390f35b34801561018657600080fd5b506101bb600480360381019080803573ffffffffffffffffffffffffffffffffffffffff1690602001909291905050506107b9565b604051808215151515815260200191505060405180910390f35b3480156101e157600080fd5b506101ea610913565b005b3480156101f857600080fd5b506102016109d9565b6040518082815260200191505060405180910390f35b34801561022357600080fd5b5061022c6109e3565b6040518082815260200191505060405180910390f35b34801561024e57600080fd5b5061026d600480360381019080803590602001909291905050506109f0565b604051808273ffffffffffffffffffffffffffffffffffffffff1673ffffffffffffffffffffffffffffffffffffffff16815260200191505060405180910390f35b3480156102bb57600080fd5b506102f860048036038101908080359060200190929190803590602001909291908035906020019092919080359060200190929190505050610a7a565b005b34801561030657600080fd5b5061030f610b4e565b6040518082815260200191505060405180910390f35b61034360048036038101908080359060200190929190505050610b6d565b604051808215151515815260200191505060405180910390f35b34801561036957600080fd5b50610372611199565b6040518082815260200191505060405180910390f35b34801561039457600080fd5b506103c9600480360381019080803573ffffffffffffffffffffffffffffffffffffffff1690602001909291905050506111a3565b005b3480156103d757600080fd5b506103e0611241565b005b3480156103ee57600080fd5b5061040d60048036038101908080359060200190929190505050611307565b604051808215151515815260200191505060405180910390f35b34801561043357600080fd5b5061043c611e2f565b6040518082815260200191505060405180910390f35b34801561045e57600080fd5b5061047d60048036038101908080359060200190929190505050611e39565b604051808215151515815260200191505060405180910390f35b3480156104a357600080fd5b506104ac612230565b005b3480156104ba57600080fd5b506104c36122f4565b005b3480156104d157600080fd5b50610506600480360381019080803573ffffffffffffffffffffffffffffffffffffffff1690602001909291905050506123d4565b604051808215151515815260200191505060405180910390f35b34801561052c57600080fd5b5061054f600480360381019080803560001916906020019092919050505061252d565b604051808215151515815260200191505060405180910390f35b34801561057557600080fd5b50610594600480360381019080803590602001909291905050506127a0565b005b3480156105a257600080fd5b506105ab61284c565b6040518082815260200191505060405180910390f35b3480156105cd57600080fd5b506105d6612856565b005b6000809054906101000a900473ffffffffffffffffffffffffffffffffffffffff1673ffffffffffffffffffffffffffffffffffffffff163373ffffffffffffffffffffffffffffffffffffffff1614151561063357600080fd5b600060159054906101000a900460ff1615151561064f57600080fd5b600060149054906101000a900460ff1615151561066b57600080fd5b600060179054906101000a900460ff16151561068657600080fd5b60008060176101000a81548160ff0219169083151502179055506001600060146101000a81548160ff021916908315150217905550600960606040519081016040528060006040519080825280602002602001820160405280156106f95781602001602082028038833980820191505090505b50815260200160015481526020016003548152509080600181540180825580915050906001820390600052602060002090600a0201600090919290919091506000820151816000019080519060200190610754929190612ae7565b506020820151816001015560408201518160020155505050600160098054905003600a819055506009805490507fffe59794e969a0d35c082e3ff4de07a91f2024088f51624c5b856a970e94752160405160405180910390a2565b6000600854905090565b60008060009054906101000a900473ffffffffffffffffffffffffffffffffffffffff1673ffffffffffffffffffffffffffffffffffffffff163373ffffffffffffffffffffffffffffffffffffffff1614151561081657600080fd5b600460008373ffffffffffffffffffffffffffffffffffffffff1673ffffffffffffffffffffffffffffffffffffffff16815260200190815260200160002060009054906101000a900460ff1615151561086f57600080fd5b6001600460008473ffffffffffffffffffffffffffffffffffffffff1673ffffffffffffffffffffffffffffffffffffffff16815260200190815260200160002060006101000a81548160ff0219169083151502179055508173ffffffffffffffffffffffffffffffffffffffff167f6f123d3d54c84a7960a573b31c221dcd86e13fd849c5adb0c6ca851468cc1ae460405160405180910390a260019050919050565b6000809054906101000a900473ffffffffffffffffffffffffffffffffffffffff1673ffffffffffffffffffffffffffffffffffffffff163373ffffffffffffffffffffffffffffffffffffffff1614151561096e57600080fd5b600060159054906101000a900460ff1615151561098a57600080fd5b6001600060156101000a81548160ff0219169083151502179055506009805490507f75ecbbcf5acf9fc04b7b54b9c241f8bb19d1fdd64aba93c967ea036bcf2d139460405160405180910390a2565b6000600554905090565b6000600980549050905090565b6000600960018303815481101515610a0457fe5b90600052602060002090600a020160060160003373ffffffffffffffffffffffffffffffffffffffff1673ffffffffffffffffffffffffffffffffffffffff16815260200190815260200160002060009054906101000a900473ffffffffffffffffffffffffffffffffffffffff169050919050565b6000809054906101000a900473ffffffffffffffffffffffffffffffffffffffff1673ffffffffffffffffffffffffffffffffffffffff163373ffffffffffffffffffffffffffffffffffffffff16141515610ad557600080fd5b836005819055508260068190555081600781905550806008819055507f36d62825987277a364a1d761378b85a1ec178791509731ed8a20ac550a0852d16005546006546007546008546040518085815260200184815260200183815260200182815260200194505050505060405180910390a150505050565b60003073ffffffffffffffffffffffffffffffffffffffff1631905090565b60008060008084803410151515610b8357600080fd5b600460003373ffffffffffffffffffffffffffffffffffffffff1673ffffffffffffffffffffffffffffffffffffffff16815260200190815260200160002060009054906101000a900460ff16151515610bdc57600080fd5b60025486111515610bec57600080fd5b600060149054906101000a900460ff161515610c0757600080fd5b6009600a54815481101515610c1857fe5b90600052602060002090600a020160030160003373ffffffffffffffffffffffffffffffffffffffff1673ffffffffffffffffffffffffffffffffffffffff16815260200190815260200160002060009054906101000a900460ff16151515610c8057600080fd5b60016009600a54815481101515610c9357fe5b90600052602060002090600a020160030160003373ffffffffffffffffffffffffffffffffffffffff1673ffffffffffffffffffffffffffffffffffffffff16815260200190815260200160002060006101000a81548160ff0219169083151502179055506060604051908101604052806000801916815260200187815260200160008152506009600a54815481101515610d2a57fe5b90600052602060002090600a020160050160003373ffffffffffffffffffffffffffffffffffffffff1673ffffffffffffffffffffffffffffffffffffffff1681526020019081526020016000206000820151816000019060001916905560208201518160010155604082015181600201559050506009600a54815481101515610db057fe5b90600052602060002090600a02016000013390806001815401808255809150509060018203906000526020600020016000909192909190916101000a81548173ffffffffffffffffffffffffffffffffffffffff021916908373ffffffffffffffffffffffffffffffffffffffff160217905550506009600a54815481101515610e3657fe5b90600052602060002090600a0201600001805490509350610e568461291a565b8015610e63575060008414155b15611138576009600a54815481101515610e7957fe5b90600052602060002090600a020160000160028503815481101515610e9a57fe5b9060005260206000200160009054906101000a900473ffffffffffffffffffffffffffffffffffffffff1692506009600a54815481101515610ed857fe5b90600052602060002090600a020160000160018503815481101515610ef957fe5b9060005260206000200160009054906101000a900473ffffffffffffffffffffffffffffffffffffffff169150816009600a54815481101515610f3857fe5b90600052602060002090600a020160060160008573ffffffffffffffffffffffffffffffffffffffff1673ffffffffffffffffffffffffffffffffffffffff16815260200190815260200160002060006101000a81548173ffffffffffffffffffffffffffffffffffffffff021916908373ffffffffffffffffffffffffffffffffffffffff160217905550826009600a54815481101515610fd657fe5b90600052602060002090600a020160060160008473ffffffffffffffffffffffffffffffffffffffff1673ffffffffffffffffffffffffffffffffffffffff16815260200190815260200160002060006101000a81548173ffffffffffffffffffffffffffffffffffffffff021916908373ffffffffffffffffffffffffffffffffffffffff1602179055508173ffffffffffffffffffffffffffffffffffffffff168373ffffffffffffffffffffffffffffffffffffffff166009805490507f125692ddc10ee47ac55f798fe75adcd53862e25f7e66610c6894ea609a33fe036009600a548154811015156110c857fe5b90600052602060002090600a020160050160008873ffffffffffffffffffffffffffffffffffffffff1673ffffffffffffffffffffffffffffffffffffffff168152602001908152602001600020600101548a604051808381526020018281526020019250505060405180910390a45b3373ffffffffffffffffffffffffffffffffffffffff166009805490507f39dd062cc095bf933d83338d8e4591b7eb119264d876f173cacb1cfdf2c9737f886040518082815260200191505060405180910390a36001945050505050919050565b6000600354905090565b6000809054906101000a900473ffffffffffffffffffffffffffffffffffffffff1673ffffffffffffffffffffffffffffffffffffffff163373ffffffffffffffffffffffffffffffffffffffff161415156111fe57600080fd5b806000806101000a81548173ffffffffffffffffffffffffffffffffffffffff021916908373ffffffffffffffffffffffffffffffffffffffff16021790555050565b6000809054906101000a900473ffffffffffffffffffffffffffffffffffffffff1673ffffffffffffffffffffffffffffffffffffffff163373ffffffffffffffffffffffffffffffffffffffff1614151561129c57600080fd5b600060169054906101000a900460ff161515156112b857600080fd5b6001600060166101000a81548160ff0219169083151502179055506009805490507f88b2d7ee1f8bedd022f28b93794a275dfeddc38d619b6e7f01e6fb5d4d5b48d560405160405180910390a2565b60008060008060008060179054906101000a900460ff168061132d575085600980549050115b151561133857600080fd5b60096001870381548110151561134a57fe5b90600052602060002090600a020193508360080160003373ffffffffffffffffffffffffffffffffffffffff1673ffffffffffffffffffffffffffffffffffffffff16815260200190815260200160002060009054906101000a900460ff161515156113b557600080fd5b8360030160003373ffffffffffffffffffffffffffffffffffffffff1673ffffffffffffffffffffffffffffffffffffffff16815260200190815260200160002060009054906101000a900460ff16151561140f57600080fd5b8360040160003373ffffffffffffffffffffffffffffffffffffffff1673ffffffffffffffffffffffffffffffffffffffff16815260200190815260200160002060009054906101000a900460ff16151561146957600080fd5b8360070160003373ffffffffffffffffffffffffffffffffffffffff1673ffffffffffffffffffffffffffffffffffffffff16815260200190815260200160002060009054906101000a900460ff1615156114c357600080fd5b8360090160003373ffffffffffffffffffffffffffffffffffffffff1673ffffffffffffffffffffffffffffffffffffffff16815260200190815260200160002060009054906101000a900460ff1615151561151e57600080fd5b3392508360060160008473ffffffffffffffffffffffffffffffffffffffff1673ffffffffffffffffffffffffffffffffffffffff16815260200190815260200160002060009054906101000a900473ffffffffffffffffffffffffffffffffffffffff169150600073ffffffffffffffffffffffffffffffffffffffff168273ffffffffffffffffffffffffffffffffffffffff1614156116815761161e868460648760050160008873ffffffffffffffffffffffffffffffffffffffff1673ffffffffffffffffffffffffffffffffffffffff1681526020019081526020016000206001015488600201546064010281151561161857fe5b0461293a565b60018460090160003373ffffffffffffffffffffffffffffffffffffffff1673ffffffffffffffffffffffffffffffffffffffff16815260200190815260200160002060006101000a81548160ff02191690831515021790555060019450611e26565b8360080160008373ffffffffffffffffffffffffffffffffffffffff1673ffffffffffffffffffffffffffffffffffffffff16815260200190815260200160002060009054906101000a900460ff16156117e1576008548460050160008473ffffffffffffffffffffffffffffffffffffffff1673ffffffffffffffffffffffffffffffffffffffff168152602001908152602001600020600101546007540281151561172a57fe5b048460050160008573ffffffffffffffffffffffffffffffffffffffff1673ffffffffffffffffffffffffffffffffffffffff1681526020019081526020016000206001015401905061177e86848361293a565b60018460090160003373ffffffffffffffffffffffffffffffffffffffff1673ffffffffffffffffffffffffffffffffffffffff16815260200190815260200160002060006101000a81548160ff02191690831515021790555060019450611e26565b61182e8460050160008573ffffffffffffffffffffffffffffffffffffffff1673ffffffffffffffffffffffffffffffffffffffff1681526020019081526020016000206002015461291a565b15801561188557506118838460050160008473ffffffffffffffffffffffffffffffffffffffff1673ffffffffffffffffffffffffffffffffffffffff1681526020019081526020016000206002015461291a565b155b15611996576008548460050160008473ffffffffffffffffffffffffffffffffffffffff1673ffffffffffffffffffffffffffffffffffffffff16815260200190815260200160002060010154600554028115156118df57fe5b048460050160008573ffffffffffffffffffffffffffffffffffffffff1673ffffffffffffffffffffffffffffffffffffffff1681526020019081526020016000206001015401905061193386848361293a565b60018460090160003373ffffffffffffffffffffffffffffffffffffffff1673ffffffffffffffffffffffffffffffffffffffff16815260200190815260200160002060006101000a81548160ff02191690831515021790555060019450611e26565b6119e38460050160008573ffffffffffffffffffffffffffffffffffffffff1673ffffffffffffffffffffffffffffffffffffffff1681526020019081526020016000206002015461291a565b158015611a395750611a388460050160008473ffffffffffffffffffffffffffffffffffffffff1673ffffffffffffffffffffffffffffffffffffffff1681526020019081526020016000206002015461291a565b5b15611b04576008548460050160008573ffffffffffffffffffffffffffffffffffffffff1673ffffffffffffffffffffffffffffffffffffffff1681526020019081526020016000206001015460055402811515611a9357fe5b049050611aa186848361293a565b60018460090160003373ffffffffffffffffffffffffffffffffffffffff1673ffffffffffffffffffffffffffffffffffffffff16815260200190815260200160002060006101000a81548160ff02191690831515021790555060019450611e26565b611b518460050160008573ffffffffffffffffffffffffffffffffffffffff1673ffffffffffffffffffffffffffffffffffffffff1681526020019081526020016000206002015461291a565b8015611ba75750611ba58460050160008473ffffffffffffffffffffffffffffffffffffffff1673ffffffffffffffffffffffffffffffffffffffff1681526020019081526020016000206002015461291a565b155b15611cb8576008548460050160008473ffffffffffffffffffffffffffffffffffffffff1673ffffffffffffffffffffffffffffffffffffffff1681526020019081526020016000206001015460065402811515611c0157fe5b048460050160008573ffffffffffffffffffffffffffffffffffffffff1673ffffffffffffffffffffffffffffffffffffffff16815260200190815260200160002060010154019050611c5586848361293a565b60018460090160003373ffffffffffffffffffffffffffffffffffffffff1673ffffffffffffffffffffffffffffffffffffffff16815260200190815260200160002060006101000a81548160ff02191690831515021790555060019450611e26565b611d058460050160008573ffffffffffffffffffffffffffffffffffffffff1673ffffffffffffffffffffffffffffffffffffffff1681526020019081526020016000206002015461291a565b8015611d5a5750611d598460050160008473ffffffffffffffffffffffffffffffffffffffff1673ffffffffffffffffffffffffffffffffffffffff1681526020019081526020016000206002015461291a565b5b15611e25576008548460050160008473ffffffffffffffffffffffffffffffffffffffff1673ffffffffffffffffffffffffffffffffffffffff1681526020019081526020016000206001015460075402811515611db457fe5b049050611dc286848361293a565b60018460090160003373ffffffffffffffffffffffffffffffffffffffff1673ffffffffffffffffffffffffffffffffffffffff16815260200190815260200160002060006101000a81548160ff02191690831515021790555060019450611e26565b5b50505050919050565b6000600754905090565b60008060006009600a54815481101515611e4f57fe5b90600052602060002090600a020160030160003373ffffffffffffffffffffffffffffffffffffffff1673ffffffffffffffffffffffffffffffffffffffff16815260200190815260200160002060009054906101000a900460ff161515611eb657600080fd5b6009600a54815481101515611ec757fe5b90600052602060002090600a020160040160003373ffffffffffffffffffffffffffffffffffffffff1673ffffffffffffffffffffffffffffffffffffffff16815260200190815260200160002060009054906101000a900460ff161515611f2e57600080fd5b6009600a54815481101515611f3f57fe5b90600052602060002090600a020160070160003373ffffffffffffffffffffffffffffffffffffffff1673ffffffffffffffffffffffffffffffffffffffff16815260200190815260200160002060009054906101000a900460ff16151515611fa757600080fd5b600060169054906101000a900460ff161515611fc257600080fd5b60016009600a54815481101515611fd557fe5b90600052602060002090600a020160070160003373ffffffffffffffffffffffffffffffffffffffff1673ffffffffffffffffffffffffffffffffffffffff16815260200190815260200160002060006101000a81548160ff021916908315150217905550836009600a5481548110151561204c57fe5b90600052602060002090600a020160050160003373ffffffffffffffffffffffffffffffffffffffff1673ffffffffffffffffffffffffffffffffffffffff168152602001908152602001600020600201819055506009600a548154811015156120b257fe5b90600052602060002090600a020160050160003373ffffffffffffffffffffffffffffffffffffffff1673ffffffffffffffffffffffffffffffffffffffff168152602001908152602001600020600001549150836040518082815260200191505060405180910390209050816000191681600019161415156122245760016009600a5481548110151561214257fe5b90600052602060002090600a020160080160003373ffffffffffffffffffffffffffffffffffffffff1673ffffffffffffffffffffffffffffffffffffffff16815260200190815260200160002060006101000a81548160ff0219169083151502179055503373ffffffffffffffffffffffffffffffffffffffff166009805490507f08df2f19cd2f4721207c143b8e65091f8342bd0dfd55c947e39106e2731f3de68487856040518084600019166000191681526020018381526020018260001916600019168152602001935050505060405180910390a360009250612229565b600192505b5050919050565b6000809054906101000a900473ffffffffffffffffffffffffffffffffffffffff1673ffffffffffffffffffffffffffffffffffffffff163373ffffffffffffffffffffffffffffffffffffffff1614151561228b57600080fd5b600060149054906101000a900460ff1615156122a657600080fd5b60008060146101000a81548160ff0219169083151502179055506009805490507feb29b8c11b5d601808b9533d3e4a3cd5b2fce63a026c49327fd0bde1047c463560405160405180910390a2565b6000809054906101000a900473ffffffffffffffffffffffffffffffffffffffff1673ffffffffffffffffffffffffffffffffffffffff163373ffffffffffffffffffffffffffffffffffffffff1614151561234f57600080fd5b600060169054906101000a900460ff16151561236a57600080fd5b6001600060166101000a81548160ff0219169083151502179055506001600060176101000a81548160ff0219169083151502179055506009805490507fcf4007e52489dc526f9a505e0b3b4cae34c6ec940f7966e8316b1274e70e2ed260405160405180910390a2565b60008060009054906101000a900473ffffffffffffffffffffffffffffffffffffffff1673ffffffffffffffffffffffffffffffffffffffff163373ffffffffffffffffffffffffffffffffffffffff1614151561243157600080fd5b600460008373ffffffffffffffffffffffffffffffffffffffff1673ffffffffffffffffffffffffffffffffffffffff16815260200190815260200160002060009054906101000a900460ff16151561248957600080fd5b6000600460008473ffffffffffffffffffffffffffffffffffffffff1673ffffffffffffffffffffffffffffffffffffffff16815260200190815260200160002060006101000a81548160ff0219169083151502179055508173ffffffffffffffffffffffffffffffffffffffff167f349b4285cb8dde314c53fd9d8e8e578381a7375e4f76f9dd9fe07f9960f120a460405160405180910390a260019050919050565b60006009600a5481548110151561254057fe5b90600052602060002090600a020160030160003373ffffffffffffffffffffffffffffffffffffffff1673ffffffffffffffffffffffffffffffffffffffff16815260200190815260200160002060009054906101000a900460ff1615156125a757600080fd5b6009600a548154811015156125b857fe5b90600052602060002090600a020160040160003373ffffffffffffffffffffffffffffffffffffffff1673ffffffffffffffffffffffffffffffffffffffff16815260200190815260200160002060009054906101000a900460ff1615151561262057600080fd5b600060159054906101000a900460ff16151561263b57600080fd5b60016009600a5481548110151561264e57fe5b90600052602060002090600a020160040160003373ffffffffffffffffffffffffffffffffffffffff1673ffffffffffffffffffffffffffffffffffffffff16815260200190815260200160002060006101000a81548160ff021916908315150217905550816009600a548154811015156126c557fe5b90600052602060002090600a020160050160003373ffffffffffffffffffffffffffffffffffffffff1673ffffffffffffffffffffffffffffffffffffffff16815260200190815260200160002060000181600019169055506009805490507f469c88e298360e0199fbf6215d55401038dfcc79d2f4b9c1aaff6b3b60805df93384604051808373ffffffffffffffffffffffffffffffffffffffff1673ffffffffffffffffffffffffffffffffffffffff16815260200182600019166000191681526020019250505060405180910390a260019050919050565b60008060009054906101000a900473ffffffffffffffffffffffffffffffffffffffff1673ffffffffffffffffffffffffffffffffffffffff163373ffffffffffffffffffffffffffffffffffffffff161415156127fd57600080fd5b6003549050816003819055507f069c5efe84a9b6dfed1e90e74e15dfcc765984ac0326c35f26d377f40af681418183604051808381526020018281526020019250505060405180910390a15050565b6000600654905090565b6000809054906101000a900473ffffffffffffffffffffffffffffffffffffffff1673ffffffffffffffffffffffffffffffffffffffff163373ffffffffffffffffffffffffffffffffffffffff161415156128b157600080fd5b600060159054906101000a900460ff1615156128cc57600080fd5b60008060156101000a81548160ff0219169083151502179055506009805490507f9d98ea2f94eb799f12dcda1741f57acc4706ea3e7b3d369ac76649748d26d13460405160405180910390a2565b60008060028381151561292957fe5b049050826002820214915050919050565b6000600460008473ffffffffffffffffffffffffffffffffffffffff1673ffffffffffffffffffffffffffffffffffffffff16815260200190815260200160002060009054906101000a900460ff1615151561299557600080fd5b6000821115156129a457600080fd5b600073ffffffffffffffffffffffffffffffffffffffff168373ffffffffffffffffffffffffffffffffffffffff16141515156129e057600080fd5b6009600185038154811015156129f257fe5b90600052602060002090600a02016001015482039050803073ffffffffffffffffffffffffffffffffffffffff163110151515612a2e57600080fd5b8273ffffffffffffffffffffffffffffffffffffffff166108fc829081150290604051600060405180830381858888f19350505050158015612a74573d6000803e3d6000fd5b50837fb34d4539a6d4489f4f5bba338e04ed7b691e9ac32a25b992080584523f990c4b8483604051808373ffffffffffffffffffffffffffffffffffffffff1673ffffffffffffffffffffffffffffffffffffffff1681526020018281526020019250505060405180910390a250505050565b828054828255906000526020600020908101928215612b60579160200282015b82811115612b5f5782518260006101000a81548173ffffffffffffffffffffffffffffffffffffffff021916908373ffffffffffffffffffffffffffffffffffffffff16021790555091602001919060010190612b07565b5b509050612b6d9190612b71565b5090565b612bb191905b80821115612bad57600081816101000a81549073ffffffffffffffffffffffffffffffffffffffff021916905550600101612b77565b5090565b905600a165627a7a7230582074589214748f1dd05d52f6b2e0faedfaa5cfc8955ac6639c942ceb8c1d826c9a0029",
  "source": "pragma solidity ^0.4.21;\n\n//TODO : Max Amount Bet.\n//TODO : Handle suspended users for all methods.\n//TODO : Store Games in a Map instead of array. See if that has any advantages.\n//TODO : Upgrade syntax to 0.4.22 for constructor warning\n\ncontract owned {\n    \n    address owner;\n    modifier onlyOwner()\n    {\n        require(msg.sender == owner);\n        _;\n    }\n}\n\ncontract priced {\n\n    modifier costs(uint256 price) {\n        require(msg.value >= price);\n        _;\n    }\n}\n\ncontract SplitStealContract is owned, priced {\n\n    //Global Variables\n    bool registerationOpen = false;\n    bool playStarted = false;\n    bool revealing = false;\n    bool lastGameFinished = true;\n    uint256 REGISTRATION_COST = 5 * 10**14; // 0.0005 Ether\n    uint256 MINIMUM_COST_OF_BET = 5 * 10**15; // 0.005 Ether\n    uint256 ODD_PLAYER_BONUS_PERCENT = 10;\n    uint constant STEAL = 0;\n    uint constant SPLIT = 1;\n    mapping(address=>bool) suspended;\n\n    //Reward Matrix Parameters\n    uint N1 = 1;\n    uint N2 = 3;\n    uint N3 = 2;\n    uint D = 4;\n    \n    //Events\n    event RegisterationOpened(uint indexed _gameNumber);\n    event Registered(uint indexed _gameNumber, address indexed _player, uint256 _betAmount);\n    event RegisterationClosed(uint indexed _gameNumber);\n    event PlayStarted(uint indexed _gameNumber);\n    event Played(uint indexed _gameNumber, address _player, bytes32 _encryptedChoice);\n    event PlayStopped(uint indexed _gameNumber);\n    event RevealStart(uint indexed _gameNumber);\n    event RevealStop(uint indexed _gameNumber);\n    event Transferred(uint indexed _gameNumber,address _to, uint256 _amount);\n    event Paired(uint indexed _gameNumber, address indexed _player1, address indexed _player2, uint256 betAmount1, uint256 betAmount2);\n    event Disqualified(uint indexed _gameNumber, address indexed _player, bytes32 _encryptedChoice, uint _actualChoice, bytes32 _encryptedActualChoice);\n    event NewRewardMatrix(uint _n1, uint _n2, uint _n3, uint _d);\n    event NewOddPlayerBonus(uint256 _fromPercentage, uint256 _toPercentage);\n    event Suspended(address indexed _player);\n    event UnSuspended(address indexed _player);\n\n    //BET Struct\n    struct Bet {\n        bytes32 encryptedChoice;\n        uint256 betAmount;\n        uint actualChoice;\n    }\n\n    //GAME Struct\n    struct Game {\n        address[] players; \n        uint256 registrationCost;\n        uint256 oddPlayerBonusPercent;\n        mapping(address=>bool) registered;\n        mapping(address=>bool) played;\n        mapping(address=>Bet) bets;\n        mapping(address=>address) pairs;\n        mapping(address=>bool) revealed;\n        mapping(address=>bool) disqualified;\n        mapping(address=>bool) claimedReward;\n        \n    }\n\n    //All Games played\n    Game[] games;\n\n    //Current Game index\n    uint gameIndex;\n\n    function SplitStealContract() public {\n        owner = msg.sender;\n    }   \n\n    // UTILITY METHODS STARTS\n\n    function getContractBalance() public view returns(uint256 _balance) {\n        return address(this).balance;\n    }\n\n    function changeOwner(address _to) public onlyOwner {\n        owner = _to;\n    }\n\n    function isEven(uint num) private pure returns(bool _isEven) {\n        uint halfNum = num / 2;\n        return (halfNum * 2) == num;\n    }\n\n    function getTotalGames() public view returns(uint _size) {\n        return games.length;\n    }\n    \n    function suspend(address _player) public onlyOwner returns(bool _suspended){\n        require(!suspended[_player]);\n        suspended[_player] = true;\n        emit Suspended(_player);\n        return true;\n    }\n\n    function unSuspend(address _player) public onlyOwner returns(bool _unSuspended){\n        require(suspended[_player]);\n        suspended[_player] = false;\n        emit UnSuspended(_player);\n        return true;\n    }\n\n    function getOpponent(uint gameNumber) public view returns(address _opponent) {\n        return games[gameNumber-1].pairs[msg.sender];\n    }\n\n    function getOddPlayerBonusPercent() public view returns(uint256 _oddPlayerBonusPercentage) {\n        return ODD_PLAYER_BONUS_PERCENT;\n    }\n\n    function setOddPlayerBonusPercent(uint256 _percentage) public onlyOwner {\n        uint256 oldPercentage = ODD_PLAYER_BONUS_PERCENT;\n        ODD_PLAYER_BONUS_PERCENT = _percentage;\n        emit NewOddPlayerBonus(oldPercentage, _percentage);\n    }\n\n    function getN1() public view returns(uint _n1){\n        return N1;\n    }\n\n    function getN2() public view returns(uint _n2){\n        return N2;\n    }\n\n    function getN3() public view returns(uint _n3){\n        return N3;\n    }\n\n    function getD() public view returns(uint _d){\n        return D;\n    }\n\n    function setRewardMatrix(uint _n1, uint _n2, uint _n3, uint _d) public onlyOwner {\n        N1 = _n1;\n        N2 = _n2;\n        N3 = _n3;\n        D = _d;\n        emit NewRewardMatrix(N1, N2, N3, D);\n    }\n\n    // UTILITY METHODS STOPS\n\n    //GAME PLAY STARTS\n\n    function startRegistration() public onlyOwner {\n        require(!playStarted);\n        require(!registerationOpen);\n        require(lastGameFinished);\n        lastGameFinished = false;\n        registerationOpen = true;\n        games.push(Game(new address[](0), REGISTRATION_COST, ODD_PLAYER_BONUS_PERCENT));\n        gameIndex = games.length - 1;\n        emit RegisterationOpened(games.length);\n    }\n\n    function bet(uint256 _betAmount) public payable costs(_betAmount) returns(bool _accepted) {\n        require(!suspended[msg.sender]);\n        require(_betAmount > MINIMUM_COST_OF_BET);\n        require(registerationOpen);\n        require(!games[gameIndex].registered[msg.sender]);\n        games[gameIndex].registered[msg.sender] = true;\n        games[gameIndex].bets[msg.sender] = Bet(\"\",_betAmount,0);\n        games[gameIndex].players.push(msg.sender);\n        uint totalPlayers = games[gameIndex].players.length;\n        if( isEven(totalPlayers) && totalPlayers != 0) {\n            address player1 = games[gameIndex].players[totalPlayers-2];\n            address player2 = games[gameIndex].players[totalPlayers-1];  \n            games[gameIndex].pairs[player1] = player2;\n            games[gameIndex].pairs[player2] = player1;\n            emit Paired(games.length, player1, player2, games[gameIndex].bets[player1].betAmount, _betAmount);\n        }\n        emit Registered(games.length, msg.sender, _betAmount);\n        return true;\n    }\n\n    function stopRegisteration() public onlyOwner {\n        require(registerationOpen);\n        registerationOpen = false;\n        emit RegisterationClosed(games.length);\n    }\n\n    function startPlay() public onlyOwner {\n        require(!playStarted);\n        playStarted = true;\n        emit PlayStarted(games.length);\n    }\n\n    function submit(bytes32 _encryptedChoice) public returns(bool _accepted)  {\n        require(games[gameIndex].registered[msg.sender]);\n        require(!games[gameIndex].played[msg.sender]);\n        require(playStarted);\n        games[gameIndex].played[msg.sender] = true;\n        games[gameIndex].bets[msg.sender].encryptedChoice = _encryptedChoice;\n        emit Played(games.length, msg.sender, _encryptedChoice);\n        return true;\n    }\n\n    function stopPlay() public onlyOwner {\n        require(playStarted);\n        playStarted = false;\n        emit PlayStopped(games.length);\n    }\n\n    function startReveal() public onlyOwner {\n        require(!revealing);\n        revealing = true;\n        emit RevealStart(games.length);\n    }\n\n    function reveal(uint256 _choice) public returns(bool _accepted){\n        require(games[gameIndex].registered[msg.sender]);\n        require(games[gameIndex].played[msg.sender]);\n        require(!games[gameIndex].revealed[msg.sender]);\n        require(revealing);\n        games[gameIndex].revealed[msg.sender] = true;\n        games[gameIndex].bets[msg.sender].actualChoice = _choice;\n        bytes32 encryptedChoice = games[gameIndex].bets[msg.sender].encryptedChoice;\n        bytes32 encryptedActualChoice = keccak256(_choice);\n        if( encryptedActualChoice != encryptedChoice) {\n            games[gameIndex].disqualified[msg.sender] = true;\n            emit Disqualified(games.length, msg.sender, encryptedChoice, _choice, encryptedActualChoice);\n            return false;\n        }\n        return true;\n    }\n\n    function stopReveal() public onlyOwner {\n        require(revealing);\n        revealing = true;\n        lastGameFinished = true;\n        emit RevealStop(games.length);\n    }\n\n    //GAME PLAY STOPS\n\n\n    //REWARD WITHDRAW STARTS\n\n    function ethTransfer(uint gameNumber, address _to, uint256 _amount) private {\n        require(!suspended[_to]);\n        require(_amount > 0);\n        require(_to != address(0));\n        //Take game Commission\n        uint256 amount = _amount - games[gameNumber-1].registrationCost;\n        require(address(this).balance >= amount);\n        _to.transfer(amount);\n        emit Transferred(gameNumber, _to, amount);\n    }\n\n    //Withdraw Reward Amount\n    function claimReward(uint gameNumber) public returns(bool _claimedReward)  {\n        require(lastGameFinished || games.length > gameNumber);\n        Game storage game = games[gameNumber-1];\n        require(!game.disqualified[msg.sender]);\n        require(game.registered[msg.sender]);\n        require(game.played[msg.sender]);\n        require(game.revealed[msg.sender]);\n        require(!game.claimedReward[msg.sender]);\n        \n        address player1 = msg.sender;\n        address player2 = game.pairs[player1];\n        \n        if (player2 == address(0)) {\n            //Odd Player1 , Pay back.\n            //Give back extra % of bet amount\n            ethTransfer(gameNumber, player1, ((100 + game.oddPlayerBonusPercent) * game.bets[player1].betAmount) / 100);\n            game.claimedReward[msg.sender] = true;\n            return true;\n        }\n        if(game.disqualified[player2]) {\n            uint256 reward = game.bets[player1].betAmount + ((N3 * game.bets[player2].betAmount) / D);\n            ethTransfer(gameNumber, player1, reward);\n            game.claimedReward[msg.sender] = true;\n            return true;\n        }\n        if ( !isEven(game.bets[player1].actualChoice) && !isEven(game.bets[player2].actualChoice) ) { // Split Split\n            reward = game.bets[player1].betAmount + ((N1 * game.bets[player2].betAmount) / D);\n            ethTransfer(gameNumber, player1, reward);\n            game.claimedReward[msg.sender] = true;\n            return true;\n        }\n        if( !isEven(game.bets[player1].actualChoice) && isEven(game.bets[player2].actualChoice) ) { // Split Steal\n            reward = ((N1 * game.bets[player1].betAmount) / D);\n            ethTransfer(gameNumber, player1, reward);\n            game.claimedReward[msg.sender] = true;\n            return true;\n        }\n        if( isEven(game.bets[player1].actualChoice) && !isEven(game.bets[player2].actualChoice) ) { // Steal Split\n            reward = game.bets[player1].betAmount + ((N2 * game.bets[player2].betAmount) / D);\n            ethTransfer(gameNumber, player1, reward);\n            game.claimedReward[msg.sender] = true;\n            return true;\n        }\n        if( isEven(game.bets[player1].actualChoice) && isEven(game.bets[player2].actualChoice) ) { // Steal Steal\n            reward = ((N3 * game.bets[player2].betAmount) / D);\n            ethTransfer(gameNumber, player1, reward);\n            game.claimedReward[msg.sender] = true;\n            return true;\n        }\n    }\n\n    //REWARD WITHDRAW ENDS\n\n}",
  "sourcePath": "/Users/rajat.mathur/git/blockchain-handson/Split-or-Steal-Game/truffle/contracts/SplitStealContract.sol",
  "compiler": {
    "name": "solc",
    "version": "0.4.22+commit.4cb486ee.Emscripten.clang"
  },
  "schemaVersion": "1.0.1",
  "updatedAt": "2018-04-18T02:32:23.925Z"
}