{
  "contractName": "SplitStealContract",
  "abi": [
    {
      "constant": false,
      "inputs": [],
      "name": "sendEther",
      "outputs": [],
      "payable": true,
      "stateMutability": "payable",
      "type": "function"
    },
    {
      "constant": false,
      "inputs": [],
      "name": "startRegistration",
      "outputs": [],
      "payable": false,
      "stateMutability": "nonpayable",
      "type": "function"
    },
    {
      "constant": false,
      "inputs": [
        {
          "name": "_player",
          "type": "address"
        }
      ],
      "name": "suspend",
      "outputs": [
        {
          "name": "_suspended",
          "type": "bool"
        }
      ],
      "payable": false,
      "stateMutability": "nonpayable",
      "type": "function"
    },
    {
      "constant": false,
      "inputs": [],
      "name": "startPlay",
      "outputs": [],
      "payable": false,
      "stateMutability": "nonpayable",
      "type": "function"
    },
    {
      "constant": false,
      "inputs": [],
      "name": "transferBalanceToOwner",
      "outputs": [],
      "payable": false,
      "stateMutability": "nonpayable",
      "type": "function"
    },
    {
      "constant": true,
      "inputs": [],
      "name": "getContractBalance",
      "outputs": [
        {
          "name": "_balance",
          "type": "uint256"
        }
      ],
      "payable": false,
      "stateMutability": "view",
      "type": "function"
    },
    {
      "constant": false,
      "inputs": [
        {
          "name": "_betAmount",
          "type": "uint256"
        }
      ],
      "name": "bet",
      "outputs": [
        {
          "name": "_accepted",
          "type": "bool"
        }
      ],
      "payable": true,
      "stateMutability": "payable",
      "type": "function"
    },
    {
      "constant": false,
      "inputs": [
        {
          "name": "_k",
          "type": "uint256"
        }
      ],
      "name": "setRewardPercentageK",
      "outputs": [],
      "payable": false,
      "stateMutability": "nonpayable",
      "type": "function"
    },
    {
      "constant": false,
      "inputs": [
        {
          "name": "amountInWei",
          "type": "uint256"
        }
      ],
      "name": "transferToOwner",
      "outputs": [],
      "payable": false,
      "stateMutability": "nonpayable",
      "type": "function"
    },
    {
      "constant": true,
      "inputs": [],
      "name": "getOwner",
      "outputs": [
        {
          "name": "_owner",
          "type": "address"
        }
      ],
      "payable": false,
      "stateMutability": "view",
      "type": "function"
    },
    {
      "constant": false,
      "inputs": [
        {
          "name": "_to",
          "type": "address"
        }
      ],
      "name": "changeOwner",
      "outputs": [],
      "payable": false,
      "stateMutability": "nonpayable",
      "type": "function"
    },
    {
      "constant": false,
      "inputs": [],
      "name": "startReveal",
      "outputs": [],
      "payable": false,
      "stateMutability": "nonpayable",
      "type": "function"
    },
    {
      "constant": false,
      "inputs": [],
      "name": "fund",
      "outputs": [],
      "payable": true,
      "stateMutability": "payable",
      "type": "function"
    },
    {
      "constant": true,
      "inputs": [],
      "name": "getGameState",
      "outputs": [
        {
          "name": "_gameNumber",
          "type": "uint256"
        },
        {
          "name": "_registerationOpen",
          "type": "bool"
        },
        {
          "name": "_playStarted",
          "type": "bool"
        },
        {
          "name": "_revealing",
          "type": "bool"
        },
        {
          "name": "_lastGameFinished",
          "type": "bool"
        },
        {
          "name": "_totalPlayers",
          "type": "uint256"
        }
      ],
      "payable": false,
      "stateMutability": "view",
      "type": "function"
    },
    {
      "constant": false,
      "inputs": [
        {
          "name": "_choice",
          "type": "uint256"
        }
      ],
      "name": "reveal",
      "outputs": [
        {
          "name": "_accepted",
          "type": "bool"
        }
      ],
      "payable": false,
      "stateMutability": "nonpayable",
      "type": "function"
    },
    {
      "constant": false,
      "inputs": [
        {
          "name": "gameNumber",
          "type": "uint256"
        }
      ],
      "name": "claimRewardK",
      "outputs": [
        {
          "name": "_claimedReward",
          "type": "bool"
        }
      ],
      "payable": false,
      "stateMutability": "nonpayable",
      "type": "function"
    },
    {
      "constant": false,
      "inputs": [],
      "name": "stopReveal",
      "outputs": [],
      "payable": false,
      "stateMutability": "nonpayable",
      "type": "function"
    },
    {
      "constant": false,
      "inputs": [
        {
          "name": "_player",
          "type": "address"
        }
      ],
      "name": "unSuspend",
      "outputs": [
        {
          "name": "_unSuspended",
          "type": "bool"
        }
      ],
      "payable": false,
      "stateMutability": "nonpayable",
      "type": "function"
    },
    {
      "constant": false,
      "inputs": [
        {
          "name": "_encryptedChoice",
          "type": "bytes32"
        }
      ],
      "name": "submit",
      "outputs": [
        {
          "name": "_accepted",
          "type": "bool"
        }
      ],
      "payable": false,
      "stateMutability": "nonpayable",
      "type": "function"
    },
    {
      "constant": false,
      "inputs": [
        {
          "name": "_percentage",
          "type": "uint256"
        }
      ],
      "name": "setOddPlayerBonusPercent",
      "outputs": [],
      "payable": false,
      "stateMutability": "nonpayable",
      "type": "function"
    },
    {
      "constant": true,
      "inputs": [
        {
          "name": "gameNumber",
          "type": "uint256"
        }
      ],
      "name": "getPlayerState",
      "outputs": [
        {
          "name": "_suspended",
          "type": "bool"
        },
        {
          "name": "_registered",
          "type": "bool"
        },
        {
          "name": "_played",
          "type": "bool"
        },
        {
          "name": "_revealed",
          "type": "bool"
        },
        {
          "name": "_disqualified",
          "type": "bool"
        },
        {
          "name": "_claimedReward",
          "type": "bool"
        },
        {
          "name": "_opponent",
          "type": "address"
        },
        {
          "name": "_betAmount",
          "type": "uint256"
        },
        {
          "name": "_reward",
          "type": "uint256"
        }
      ],
      "payable": false,
      "stateMutability": "view",
      "type": "function"
    },
    {
      "constant": true,
      "inputs": [],
      "name": "getRewardMatrix",
      "outputs": [
        {
          "name": "_k",
          "type": "uint256"
        },
        {
          "name": "_oddPlayerBonusPercentage",
          "type": "uint256"
        }
      ],
      "payable": false,
      "stateMutability": "view",
      "type": "function"
    },
    {
      "inputs": [],
      "payable": false,
      "stateMutability": "nonpayable",
      "type": "constructor"
    },
    {
      "anonymous": false,
      "inputs": [
        {
          "indexed": true,
          "name": "_gameNumber",
          "type": "uint256"
        }
      ],
      "name": "RegisterationOpened",
      "type": "event"
    },
    {
      "anonymous": false,
      "inputs": [
        {
          "indexed": true,
          "name": "_gameNumber",
          "type": "uint256"
        },
        {
          "indexed": true,
          "name": "_player",
          "type": "address"
        },
        {
          "indexed": false,
          "name": "_betAmount",
          "type": "uint256"
        }
      ],
      "name": "Registered",
      "type": "event"
    },
    {
      "anonymous": false,
      "inputs": [
        {
          "indexed": true,
          "name": "_gameNumber",
          "type": "uint256"
        }
      ],
      "name": "RegisterationClosed",
      "type": "event"
    },
    {
      "anonymous": false,
      "inputs": [
        {
          "indexed": true,
          "name": "_gameNumber",
          "type": "uint256"
        }
      ],
      "name": "PlayStarted",
      "type": "event"
    },
    {
      "anonymous": false,
      "inputs": [
        {
          "indexed": true,
          "name": "_gameNumber",
          "type": "uint256"
        },
        {
          "indexed": false,
          "name": "_player",
          "type": "address"
        },
        {
          "indexed": false,
          "name": "_encryptedChoice",
          "type": "bytes32"
        }
      ],
      "name": "Played",
      "type": "event"
    },
    {
      "anonymous": false,
      "inputs": [
        {
          "indexed": true,
          "name": "_gameNumber",
          "type": "uint256"
        }
      ],
      "name": "PlayStopped",
      "type": "event"
    },
    {
      "anonymous": false,
      "inputs": [
        {
          "indexed": true,
          "name": "_gameNumber",
          "type": "uint256"
        }
      ],
      "name": "RevealStart",
      "type": "event"
    },
    {
      "anonymous": false,
      "inputs": [
        {
          "indexed": true,
          "name": "_gameNumber",
          "type": "uint256"
        }
      ],
      "name": "RevealStop",
      "type": "event"
    },
    {
      "anonymous": false,
      "inputs": [
        {
          "indexed": true,
          "name": "_gameNumber",
          "type": "uint256"
        },
        {
          "indexed": false,
          "name": "_to",
          "type": "address"
        },
        {
          "indexed": false,
          "name": "_amount",
          "type": "uint256"
        }
      ],
      "name": "Transferred",
      "type": "event"
    },
    {
      "anonymous": false,
      "inputs": [
        {
          "indexed": true,
          "name": "_gameNumber",
          "type": "uint256"
        },
        {
          "indexed": true,
          "name": "_player1",
          "type": "address"
        },
        {
          "indexed": true,
          "name": "_player2",
          "type": "address"
        },
        {
          "indexed": false,
          "name": "betAmount1",
          "type": "uint256"
        },
        {
          "indexed": false,
          "name": "betAmount2",
          "type": "uint256"
        }
      ],
      "name": "Paired",
      "type": "event"
    },
    {
      "anonymous": false,
      "inputs": [
        {
          "indexed": true,
          "name": "_gameNumber",
          "type": "uint256"
        },
        {
          "indexed": true,
          "name": "_player",
          "type": "address"
        },
        {
          "indexed": false,
          "name": "_encryptedChoice",
          "type": "bytes32"
        },
        {
          "indexed": false,
          "name": "_actualChoice",
          "type": "uint256"
        },
        {
          "indexed": false,
          "name": "_encryptedActualChoice",
          "type": "bytes32"
        }
      ],
      "name": "Disqualified",
      "type": "event"
    },
    {
      "anonymous": false,
      "inputs": [
        {
          "indexed": false,
          "name": "_n1",
          "type": "uint256"
        },
        {
          "indexed": false,
          "name": "_n2",
          "type": "uint256"
        },
        {
          "indexed": false,
          "name": "_n3",
          "type": "uint256"
        },
        {
          "indexed": false,
          "name": "_d",
          "type": "uint256"
        }
      ],
      "name": "NewRewardMatrix",
      "type": "event"
    },
    {
      "anonymous": false,
      "inputs": [
        {
          "indexed": false,
          "name": "_oldK",
          "type": "uint256"
        },
        {
          "indexed": false,
          "name": "_k",
          "type": "uint256"
        }
      ],
      "name": "NewRewardPercentage",
      "type": "event"
    },
    {
      "anonymous": false,
      "inputs": [
        {
          "indexed": false,
          "name": "_fromPercentage",
          "type": "uint256"
        },
        {
          "indexed": false,
          "name": "_toPercentage",
          "type": "uint256"
        }
      ],
      "name": "NewOddPlayerBonus",
      "type": "event"
    },
    {
      "anonymous": false,
      "inputs": [
        {
          "indexed": true,
          "name": "_player",
          "type": "address"
        }
      ],
      "name": "Suspended",
      "type": "event"
    },
    {
      "anonymous": false,
      "inputs": [
        {
          "indexed": true,
          "name": "_player",
          "type": "address"
        }
      ],
      "name": "UnSuspended",
      "type": "event"
    }
  ],
  "bytecode": "0x608060405260008060146101000a81548160ff02191690831515021790555060008060156101000a81548160ff02191690831515021790555060008060166101000a81548160ff0219169083151502179055506001600060176101000a81548160ff0219169083151502179055506601c6bf526340006001556611c37937e08000600255600a6003556004600555601960065534801561009e57600080fd5b50336000806101000a81548173ffffffffffffffffffffffffffffffffffffffff021916908373ffffffffffffffffffffffffffffffffffffffff160217905550613359806100ee6000396000f300608060405260043610610128576000357c0100000000000000000000000000000000000000000000000000000000900463ffffffff1680630e29df221461012d57806310b8669514610137578063286781c71461014e5780632b94af15146101a957806347f07a8e146101c05780636f9fb98a146101d75780637365870b1461020257806377faba661461023a57806387c1ed1214610267578063893d20e814610294578063a6f9dae1146102eb578063ad72202b1461032e578063b60d428814610345578063b7d0628b1461034f578063c2ca0ac5146103ad578063cace7bd3146103f2578063d7b9188814610437578063d8be28381461044e578063d9caa3d2146104a9578063e796b5d8146104f2578063ec7ecec51461051f578063ee42c2d9146105dc575b600080fd5b61013561060e565b005b34801561014357600080fd5b5061014c61066b565b005b34801561015a57600080fd5b5061018f600480360381019080803573ffffffffffffffffffffffffffffffffffffffff169060200190929190505050610854565b604051808215151515815260200191505060405180910390f35b3480156101b557600080fd5b506101be6109ae565b005b3480156101cc57600080fd5b506101d5610adb565b005b3480156101e357600080fd5b506101ec610b58565b6040518082815260200191505060405180910390f35b61022060048036038101908080359060200190929190505050610b77565b604051808215151515815260200191505060405180910390f35b34801561024657600080fd5b50610265600480360381019080803590602001909291905050506111a3565b005b34801561027357600080fd5b5061029260048036038101908080359060200190929190505050611251565b005b3480156102a057600080fd5b506102a961133d565b604051808273ffffffffffffffffffffffffffffffffffffffff1673ffffffffffffffffffffffffffffffffffffffff16815260200191505060405180910390f35b3480156102f757600080fd5b5061032c600480360381019080803573ffffffffffffffffffffffffffffffffffffffff169060200190929190505050611366565b005b34801561033a57600080fd5b50610343611404565b005b61034d611531565b005b34801561035b57600080fd5b50610364611533565b6040518087815260200186151515158152602001851515151581526020018415151515815260200183151515158152602001828152602001965050505050505060405180910390f35b3480156103b957600080fd5b506103d8600480360381019080803590602001909291905050506115da565b604051808215151515815260200191505060405180910390f35b3480156103fe57600080fd5b5061041d600480360381019080803590602001909291905050506119d1565b604051808215151515815260200191505060405180910390f35b34801561044357600080fd5b5061044c612690565b005b34801561045a57600080fd5b5061048f600480360381019080803573ffffffffffffffffffffffffffffffffffffffff16906020019092919050505061276f565b604051808215151515815260200191505060405180910390f35b3480156104b557600080fd5b506104d860048036038101908080356000191690602001909291905050506128c8565b604051808215151515815260200191505060405180910390f35b3480156104fe57600080fd5b5061051d60048036038101908080359060200190929190505050612b3b565b005b34801561052b57600080fd5b5061054a60048036038101908080359060200190929190505050612be7565b604051808a15151515815260200189151515158152602001881515151581526020018715151515815260200186151515158152602001851515151581526020018473ffffffffffffffffffffffffffffffffffffffff1673ffffffffffffffffffffffffffffffffffffffff168152602001838152602001828152602001995050505050505050505060405180910390f35b3480156105e857600080fd5b506105f1613082565b604051808381526020018281526020019250505060405180910390f35b6000809054906101000a900473ffffffffffffffffffffffffffffffffffffffff1673ffffffffffffffffffffffffffffffffffffffff163373ffffffffffffffffffffffffffffffffffffffff1614151561066957600080fd5b565b6000809054906101000a900473ffffffffffffffffffffffffffffffffffffffff1673ffffffffffffffffffffffffffffffffffffffff163373ffffffffffffffffffffffffffffffffffffffff161415156106c657600080fd5b600060159054906101000a900460ff161515156106e257600080fd5b600060149054906101000a900460ff161515156106fe57600080fd5b600060179054906101000a900460ff16151561071957600080fd5b60008060176101000a81548160ff0219169083151502179055506001600060146101000a81548160ff0219169083151502179055506007608060405190810160405280600060405190808252806020026020018201604052801561078c5781602001602082028038833980820191505090505b508152602001600154815260200160035481526020016006548152509080600181540180825580915050906001820390600052602060002090600c02016000909192909190915060008201518160000190805190602001906107ef929190613260565b506020820151816001015560408201518160020155606082015181600301555050506001600780549050036008819055506007805490507fffe59794e969a0d35c082e3ff4de07a91f2024088f51624c5b856a970e94752160405160405180910390a2565b60008060009054906101000a900473ffffffffffffffffffffffffffffffffffffffff1673ffffffffffffffffffffffffffffffffffffffff163373ffffffffffffffffffffffffffffffffffffffff161415156108b157600080fd5b600460008373ffffffffffffffffffffffffffffffffffffffff1673ffffffffffffffffffffffffffffffffffffffff16815260200190815260200160002060009054906101000a900460ff1615151561090a57600080fd5b6001600460008473ffffffffffffffffffffffffffffffffffffffff1673ffffffffffffffffffffffffffffffffffffffff16815260200190815260200160002060006101000a81548160ff0219169083151502179055508173ffffffffffffffffffffffffffffffffffffffff167f6f123d3d54c84a7960a573b31c221dcd86e13fd849c5adb0c6ca851468cc1ae460405160405180910390a260019050919050565b6000809054906101000a900473ffffffffffffffffffffffffffffffffffffffff1673ffffffffffffffffffffffffffffffffffffffff163373ffffffffffffffffffffffffffffffffffffffff16141515610a0957600080fd5b600060149054906101000a900460ff161515610a2457600080fd5b600060159054906101000a900460ff16151515610a4057600080fd5b6001600060156101000a81548160ff02191690831515021790555060008060146101000a81548160ff0219169083151502179055506007805490507feb29b8c11b5d601808b9533d3e4a3cd5b2fce63a026c49327fd0bde1047c463560405160405180910390a26007805490507f75ecbbcf5acf9fc04b7b54b9c241f8bb19d1fdd64aba93c967ea036bcf2d139460405160405180910390a2565b6000809054906101000a900473ffffffffffffffffffffffffffffffffffffffff1673ffffffffffffffffffffffffffffffffffffffff163373ffffffffffffffffffffffffffffffffffffffff16141515610b3657600080fd5b610b563073ffffffffffffffffffffffffffffffffffffffff1631611251565b565b60003073ffffffffffffffffffffffffffffffffffffffff1631905090565b60008060008084803410151515610b8d57600080fd5b600460003373ffffffffffffffffffffffffffffffffffffffff1673ffffffffffffffffffffffffffffffffffffffff16815260200190815260200160002060009054906101000a900460ff16151515610be657600080fd5b60025486111515610bf657600080fd5b600060149054906101000a900460ff161515610c1157600080fd5b6007600854815481101515610c2257fe5b90600052602060002090600c020160040160003373ffffffffffffffffffffffffffffffffffffffff1673ffffffffffffffffffffffffffffffffffffffff16815260200190815260200160002060009054906101000a900460ff16151515610c8a57600080fd5b60016007600854815481101515610c9d57fe5b90600052602060002090600c020160040160003373ffffffffffffffffffffffffffffffffffffffff1673ffffffffffffffffffffffffffffffffffffffff16815260200190815260200160002060006101000a81548160ff0219169083151502179055506060604051908101604052806000801916815260200187815260200160008152506007600854815481101515610d3457fe5b90600052602060002090600c020160060160003373ffffffffffffffffffffffffffffffffffffffff1673ffffffffffffffffffffffffffffffffffffffff1681526020019081526020016000206000820151816000019060001916905560208201518160010155604082015181600201559050506007600854815481101515610dba57fe5b90600052602060002090600c02016000013390806001815401808255809150509060018203906000526020600020016000909192909190916101000a81548173ffffffffffffffffffffffffffffffffffffffff021916908373ffffffffffffffffffffffffffffffffffffffff160217905550506007600854815481101515610e4057fe5b90600052602060002090600c0201600001805490509350610e6084613093565b8015610e6d575060008414155b15611142576007600854815481101515610e8357fe5b90600052602060002090600c020160000160028503815481101515610ea457fe5b9060005260206000200160009054906101000a900473ffffffffffffffffffffffffffffffffffffffff1692506007600854815481101515610ee257fe5b90600052602060002090600c020160000160018503815481101515610f0357fe5b9060005260206000200160009054906101000a900473ffffffffffffffffffffffffffffffffffffffff169150816007600854815481101515610f4257fe5b90600052602060002090600c020160070160008573ffffffffffffffffffffffffffffffffffffffff1673ffffffffffffffffffffffffffffffffffffffff16815260200190815260200160002060006101000a81548173ffffffffffffffffffffffffffffffffffffffff021916908373ffffffffffffffffffffffffffffffffffffffff160217905550826007600854815481101515610fe057fe5b90600052602060002090600c020160070160008473ffffffffffffffffffffffffffffffffffffffff1673ffffffffffffffffffffffffffffffffffffffff16815260200190815260200160002060006101000a81548173ffffffffffffffffffffffffffffffffffffffff021916908373ffffffffffffffffffffffffffffffffffffffff1602179055508173ffffffffffffffffffffffffffffffffffffffff168373ffffffffffffffffffffffffffffffffffffffff166007805490507f125692ddc10ee47ac55f798fe75adcd53862e25f7e66610c6894ea609a33fe0360076008548154811015156110d257fe5b90600052602060002090600c020160060160008873ffffffffffffffffffffffffffffffffffffffff1673ffffffffffffffffffffffffffffffffffffffff168152602001908152602001600020600101548a604051808381526020018281526020019250505060405180910390a45b3373ffffffffffffffffffffffffffffffffffffffff166007805490507f39dd062cc095bf933d83338d8e4591b7eb119264d876f173cacb1cfdf2c9737f886040518082815260200191505060405180910390a36001945050505050919050565b60008060009054906101000a900473ffffffffffffffffffffffffffffffffffffffff1673ffffffffffffffffffffffffffffffffffffffff163373ffffffffffffffffffffffffffffffffffffffff1614151561120057600080fd5b6006549050816006819055507f15acc69e083ac651d25243792560b71a5b2aa225df4548db2a3cf55de1bf1e2e81600654604051808381526020018281526020019250505060405180910390a15050565b6000809054906101000a900473ffffffffffffffffffffffffffffffffffffffff1673ffffffffffffffffffffffffffffffffffffffff163373ffffffffffffffffffffffffffffffffffffffff161415156112ac57600080fd5b803073ffffffffffffffffffffffffffffffffffffffff1631101515156112d257600080fd5b6000809054906101000a900473ffffffffffffffffffffffffffffffffffffffff1673ffffffffffffffffffffffffffffffffffffffff166108fc829081150290604051600060405180830381858888f19350505050158015611339573d6000803e3d6000fd5b5050565b60008060009054906101000a900473ffffffffffffffffffffffffffffffffffffffff16905090565b6000809054906101000a900473ffffffffffffffffffffffffffffffffffffffff1673ffffffffffffffffffffffffffffffffffffffff163373ffffffffffffffffffffffffffffffffffffffff161415156113c157600080fd5b806000806101000a81548173ffffffffffffffffffffffffffffffffffffffff021916908373ffffffffffffffffffffffffffffffffffffffff16021790555050565b6000809054906101000a900473ffffffffffffffffffffffffffffffffffffffff1673ffffffffffffffffffffffffffffffffffffffff163373ffffffffffffffffffffffffffffffffffffffff1614151561145f57600080fd5b600060159054906101000a900460ff16151561147a57600080fd5b600060169054906101000a900460ff1615151561149657600080fd5b60008060156101000a81548160ff0219169083151502179055506001600060166101000a81548160ff0219169083151502179055506007805490507f9d98ea2f94eb799f12dcda1741f57acc4706ea3e7b3d369ac76649748d26d13460405160405180910390a26007805490507f88b2d7ee1f8bedd022f28b93794a275dfeddc38d619b6e7f01e6fb5d4d5b48d560405160405180910390a2565b565b60008060008060008060008090506000600780549050111561157e57600760016007805490500381548110151561156657fe5b90600052602060002090600c02016000018054905090505b600780549050600060149054906101000a900460ff16600060159054906101000a900460ff16600060169054906101000a900460ff16600060179054906101000a900460ff168596509650965096509650965050909192939495565b600080600060076008548154811015156115f057fe5b90600052602060002090600c020160040160003373ffffffffffffffffffffffffffffffffffffffff1673ffffffffffffffffffffffffffffffffffffffff16815260200190815260200160002060009054906101000a900460ff16151561165757600080fd5b600760085481548110151561166857fe5b90600052602060002090600c020160050160003373ffffffffffffffffffffffffffffffffffffffff1673ffffffffffffffffffffffffffffffffffffffff16815260200190815260200160002060009054906101000a900460ff1615156116cf57600080fd5b60076008548154811015156116e057fe5b90600052602060002090600c020160080160003373ffffffffffffffffffffffffffffffffffffffff1673ffffffffffffffffffffffffffffffffffffffff16815260200190815260200160002060009054906101000a900460ff1615151561174857600080fd5b600060169054906101000a900460ff16151561176357600080fd5b6001600760085481548110151561177657fe5b90600052602060002090600c020160080160003373ffffffffffffffffffffffffffffffffffffffff1673ffffffffffffffffffffffffffffffffffffffff16815260200190815260200160002060006101000a81548160ff0219169083151502179055508360076008548154811015156117ed57fe5b90600052602060002090600c020160060160003373ffffffffffffffffffffffffffffffffffffffff1673ffffffffffffffffffffffffffffffffffffffff16815260200190815260200160002060020181905550600760085481548110151561185357fe5b90600052602060002090600c020160060160003373ffffffffffffffffffffffffffffffffffffffff1673ffffffffffffffffffffffffffffffffffffffff168152602001908152602001600020600001549150836040518082815260200191505060405180910390209050816000191681600019161415156119c557600160076008548154811015156118e357fe5b90600052602060002090600c020160090160003373ffffffffffffffffffffffffffffffffffffffff1673ffffffffffffffffffffffffffffffffffffffff16815260200190815260200160002060006101000a81548160ff0219169083151502179055503373ffffffffffffffffffffffffffffffffffffffff166007805490507f08df2f19cd2f4721207c143b8e65091f8342bd0dfd55c947e39106e2731f3de68487856040518084600019166000191681526020018381526020018260001916600019168152602001935050505060405180910390a3600092506119ca565b600192505b5050919050565b60008060008060008060179054906101000a900460ff16806119f7575085600780549050115b1515611a0257600080fd5b600760018703815481101515611a1457fe5b90600052602060002090600c020193508360090160003373ffffffffffffffffffffffffffffffffffffffff1673ffffffffffffffffffffffffffffffffffffffff16815260200190815260200160002060009054906101000a900460ff16151515611a7f57600080fd5b8360040160003373ffffffffffffffffffffffffffffffffffffffff1673ffffffffffffffffffffffffffffffffffffffff16815260200190815260200160002060009054906101000a900460ff161515611ad957600080fd5b8360050160003373ffffffffffffffffffffffffffffffffffffffff1673ffffffffffffffffffffffffffffffffffffffff16815260200190815260200160002060009054906101000a900460ff161515611b3357600080fd5b8360080160003373ffffffffffffffffffffffffffffffffffffffff1673ffffffffffffffffffffffffffffffffffffffff16815260200190815260200160002060009054906101000a900460ff161515611b8d57600080fd5b83600a0160003373ffffffffffffffffffffffffffffffffffffffff1673ffffffffffffffffffffffffffffffffffffffff16815260200190815260200160002060009054906101000a900460ff16151515611be857600080fd5b3392508360070160008473ffffffffffffffffffffffffffffffffffffffff1673ffffffffffffffffffffffffffffffffffffffff16815260200190815260200160002060009054906101000a900473ffffffffffffffffffffffffffffffffffffffff169150600073ffffffffffffffffffffffffffffffffffffffff168273ffffffffffffffffffffffffffffffffffffffff161415611d9157611ce8868460648760060160008873ffffffffffffffffffffffffffffffffffffffff1673ffffffffffffffffffffffffffffffffffffffff16815260200190815260200160002060010154886002015460640102811515611ce257fe5b046130b3565b8084600b0160008573ffffffffffffffffffffffffffffffffffffffff1673ffffffffffffffffffffffffffffffffffffffff16815260200190815260200160002081905550600184600a0160003373ffffffffffffffffffffffffffffffffffffffff1673ffffffffffffffffffffffffffffffffffffffff16815260200190815260200160002060006101000a81548160ff02191690831515021790555060019450612687565b8360090160008373ffffffffffffffffffffffffffffffffffffffff1673ffffffffffffffffffffffffffffffffffffffff16815260200190815260200160002060009054906101000a900460ff1615611ef55760648460060160008573ffffffffffffffffffffffffffffffffffffffff1673ffffffffffffffffffffffffffffffffffffffff16815260200190815260200160002060010154856003015460640102811515611e3e57fe5b049050611e4c8684836130b3565b8084600b0160008573ffffffffffffffffffffffffffffffffffffffff1673ffffffffffffffffffffffffffffffffffffffff16815260200190815260200160002081905550600184600a0160003373ffffffffffffffffffffffffffffffffffffffff1673ffffffffffffffffffffffffffffffffffffffff16815260200190815260200160002060006101000a81548160ff02191690831515021790555060019450612687565b611f428460060160008573ffffffffffffffffffffffffffffffffffffffff1673ffffffffffffffffffffffffffffffffffffffff16815260200190815260200160002060020154613093565b158015611f995750611f978460060160008473ffffffffffffffffffffffffffffffffffffffff1673ffffffffffffffffffffffffffffffffffffffff16815260200190815260200160002060020154613093565b155b156120eb5760028460060160008473ffffffffffffffffffffffffffffffffffffffff1673ffffffffffffffffffffffffffffffffffffffff168152602001908152602001600020600101548560060160008673ffffffffffffffffffffffffffffffffffffffff1673ffffffffffffffffffffffffffffffffffffffff168152602001908152602001600020600101540181151561203457fe5b0490506120428684836130b3565b8084600b0160008573ffffffffffffffffffffffffffffffffffffffff1673ffffffffffffffffffffffffffffffffffffffff16815260200190815260200160002081905550600184600a0160003373ffffffffffffffffffffffffffffffffffffffff1673ffffffffffffffffffffffffffffffffffffffff16815260200190815260200160002060006101000a81548160ff02191690831515021790555060019450612687565b6121388460060160008573ffffffffffffffffffffffffffffffffffffffff1673ffffffffffffffffffffffffffffffffffffffff16815260200190815260200160002060020154613093565b15801561218e575061218d8460060160008473ffffffffffffffffffffffffffffffffffffffff1673ffffffffffffffffffffffffffffffffffffffff16815260200190815260200160002060020154613093565b5b1561223d57600084600b0160008573ffffffffffffffffffffffffffffffffffffffff1673ffffffffffffffffffffffffffffffffffffffff16815260200190815260200160002081905550600184600a0160003373ffffffffffffffffffffffffffffffffffffffff1673ffffffffffffffffffffffffffffffffffffffff16815260200190815260200160002060006101000a81548160ff02191690831515021790555060019450612687565b61228a8460060160008573ffffffffffffffffffffffffffffffffffffffff1673ffffffffffffffffffffffffffffffffffffffff16815260200190815260200160002060020154613093565b80156122e057506122de8460060160008473ffffffffffffffffffffffffffffffffffffffff1673ffffffffffffffffffffffffffffffffffffffff16815260200190815260200160002060020154613093565b155b156123f55760648460060160008573ffffffffffffffffffffffffffffffffffffffff1673ffffffffffffffffffffffffffffffffffffffff1681526020019081526020016000206001015485600301546064010281151561233e57fe5b04905061234c8684836130b3565b8084600b0160008573ffffffffffffffffffffffffffffffffffffffff1673ffffffffffffffffffffffffffffffffffffffff16815260200190815260200160002081905550600184600a0160003373ffffffffffffffffffffffffffffffffffffffff1673ffffffffffffffffffffffffffffffffffffffff16815260200190815260200160002060006101000a81548160ff02191690831515021790555060019450612687565b6124428460060160008573ffffffffffffffffffffffffffffffffffffffff1673ffffffffffffffffffffffffffffffffffffffff16815260200190815260200160002060020154613093565b801561249757506124968460060160008473ffffffffffffffffffffffffffffffffffffffff1673ffffffffffffffffffffffffffffffffffffffff16815260200190815260200160002060020154613093565b5b1561268657600090508360060160008373ffffffffffffffffffffffffffffffffffffffff1673ffffffffffffffffffffffffffffffffffffffff168152602001908152602001600020600101548460060160008573ffffffffffffffffffffffffffffffffffffffff1673ffffffffffffffffffffffffffffffffffffffff1681526020019081526020016000206001015411156125d25760648460060160008473ffffffffffffffffffffffffffffffffffffffff1673ffffffffffffffffffffffffffffffffffffffff168152602001908152602001600020600101548560060160008673ffffffffffffffffffffffffffffffffffffffff1673ffffffffffffffffffffffffffffffffffffffff16815260200190815260200160002060010154038560030154606401028115156125cf57fe5b50505b6125dd8684836130b3565b8084600b0160008573ffffffffffffffffffffffffffffffffffffffff1673ffffffffffffffffffffffffffffffffffffffff16815260200190815260200160002081905550600184600a0160003373ffffffffffffffffffffffffffffffffffffffff1673ffffffffffffffffffffffffffffffffffffffff16815260200190815260200160002060006101000a81548160ff02191690831515021790555060019450612687565b5b50505050919050565b6000809054906101000a900473ffffffffffffffffffffffffffffffffffffffff1673ffffffffffffffffffffffffffffffffffffffff163373ffffffffffffffffffffffffffffffffffffffff161415156126eb57600080fd5b600060169054906101000a900460ff16151561270657600080fd5b60008060166101000a81548160ff0219169083151502179055506001600060176101000a81548160ff0219169083151502179055506007805490507fcf4007e52489dc526f9a505e0b3b4cae34c6ec940f7966e8316b1274e70e2ed260405160405180910390a2565b60008060009054906101000a900473ffffffffffffffffffffffffffffffffffffffff1673ffffffffffffffffffffffffffffffffffffffff163373ffffffffffffffffffffffffffffffffffffffff161415156127cc57600080fd5b600460008373ffffffffffffffffffffffffffffffffffffffff1673ffffffffffffffffffffffffffffffffffffffff16815260200190815260200160002060009054906101000a900460ff16151561282457600080fd5b6000600460008473ffffffffffffffffffffffffffffffffffffffff1673ffffffffffffffffffffffffffffffffffffffff16815260200190815260200160002060006101000a81548160ff0219169083151502179055508173ffffffffffffffffffffffffffffffffffffffff167f349b4285cb8dde314c53fd9d8e8e578381a7375e4f76f9dd9fe07f9960f120a460405160405180910390a260019050919050565b600060076008548154811015156128db57fe5b90600052602060002090600c020160040160003373ffffffffffffffffffffffffffffffffffffffff1673ffffffffffffffffffffffffffffffffffffffff16815260200190815260200160002060009054906101000a900460ff16151561294257600080fd5b600760085481548110151561295357fe5b90600052602060002090600c020160050160003373ffffffffffffffffffffffffffffffffffffffff1673ffffffffffffffffffffffffffffffffffffffff16815260200190815260200160002060009054906101000a900460ff161515156129bb57600080fd5b600060159054906101000a900460ff1615156129d657600080fd5b600160076008548154811015156129e957fe5b90600052602060002090600c020160050160003373ffffffffffffffffffffffffffffffffffffffff1673ffffffffffffffffffffffffffffffffffffffff16815260200190815260200160002060006101000a81548160ff021916908315150217905550816007600854815481101515612a6057fe5b90600052602060002090600c020160060160003373ffffffffffffffffffffffffffffffffffffffff1673ffffffffffffffffffffffffffffffffffffffff16815260200190815260200160002060000181600019169055506007805490507f469c88e298360e0199fbf6215d55401038dfcc79d2f4b9c1aaff6b3b60805df93384604051808373ffffffffffffffffffffffffffffffffffffffff1673ffffffffffffffffffffffffffffffffffffffff16815260200182600019166000191681526020019250505060405180910390a260019050919050565b60008060009054906101000a900473ffffffffffffffffffffffffffffffffffffffff1673ffffffffffffffffffffffffffffffffffffffff163373ffffffffffffffffffffffffffffffffffffffff16141515612b9857600080fd5b6003549050816003819055507f069c5efe84a9b6dfed1e90e74e15dfcc765984ac0326c35f26d377f40af681418183604051808381526020018281526020019250505060405180910390a15050565b6000806000806000806000806000806000806000808e60078054905010151515612c1057600080fd5b60018f039450339350600785815481101515612c2857fe5b90600052602060002090600c020160070160008573ffffffffffffffffffffffffffffffffffffffff1673ffffffffffffffffffffffffffffffffffffffff16815260200190815260200160002060009054906101000a900473ffffffffffffffffffffffffffffffffffffffff169250600785815481101515612ca857fe5b90600052602060002090600c020160060160008573ffffffffffffffffffffffffffffffffffffffff1673ffffffffffffffffffffffffffffffffffffffff16815260200190815260200160002060010154915060009050600073ffffffffffffffffffffffffffffffffffffffff168373ffffffffffffffffffffffffffffffffffffffff16141515612d9a57600785815481101515612d4557fe5b90600052602060002090600c020160060160008473ffffffffffffffffffffffffffffffffffffffff1673ffffffffffffffffffffffffffffffffffffffff1681526020019081526020016000206001015490505b600460008573ffffffffffffffffffffffffffffffffffffffff1673ffffffffffffffffffffffffffffffffffffffff16815260200190815260200160002060009054906101000a900460ff16600786815481101515612df657fe5b90600052602060002090600c020160040160008673ffffffffffffffffffffffffffffffffffffffff1673ffffffffffffffffffffffffffffffffffffffff16815260200190815260200160002060009054906101000a900460ff16600787815481101515612e6157fe5b90600052602060002090600c020160050160008773ffffffffffffffffffffffffffffffffffffffff1673ffffffffffffffffffffffffffffffffffffffff16815260200190815260200160002060009054906101000a900460ff16600788815481101515612ecc57fe5b90600052602060002090600c020160080160008873ffffffffffffffffffffffffffffffffffffffff1673ffffffffffffffffffffffffffffffffffffffff16815260200190815260200160002060009054906101000a900460ff16600789815481101515612f3757fe5b90600052602060002090600c020160090160008973ffffffffffffffffffffffffffffffffffffffff1673ffffffffffffffffffffffffffffffffffffffff16815260200190815260200160002060009054906101000a900460ff1660078a815481101515612fa257fe5b90600052602060002090600c0201600a0160008a73ffffffffffffffffffffffffffffffffffffffff1673ffffffffffffffffffffffffffffffffffffffff16815260200190815260200160002060009054906101000a900460ff16888860078d81548110151561300f57fe5b90600052602060002090600c0201600b0160008d73ffffffffffffffffffffffffffffffffffffffff1673ffffffffffffffffffffffffffffffffffffffff168152602001908152602001600020549d509d509d509d509d509d509d509d509d5050505050509193959799909294969850565b600080600654600354915091509091565b6000806002838115156130a257fe5b049050826002820214915050919050565b6000600460008473ffffffffffffffffffffffffffffffffffffffff1673ffffffffffffffffffffffffffffffffffffffff16815260200190815260200160002060009054906101000a900460ff1615151561310e57600080fd5b60008211151561311d57600080fd5b600073ffffffffffffffffffffffffffffffffffffffff168373ffffffffffffffffffffffffffffffffffffffff161415151561315957600080fd5b60076001850381548110151561316b57fe5b90600052602060002090600c02016001015482039050803073ffffffffffffffffffffffffffffffffffffffff1631101515156131a757600080fd5b8273ffffffffffffffffffffffffffffffffffffffff166108fc829081150290604051600060405180830381858888f193505050501580156131ed573d6000803e3d6000fd5b50837fb34d4539a6d4489f4f5bba338e04ed7b691e9ac32a25b992080584523f990c4b8483604051808373ffffffffffffffffffffffffffffffffffffffff1673ffffffffffffffffffffffffffffffffffffffff1681526020018281526020019250505060405180910390a250505050565b8280548282559060005260206000209081019282156132d9579160200282015b828111156132d85782518260006101000a81548173ffffffffffffffffffffffffffffffffffffffff021916908373ffffffffffffffffffffffffffffffffffffffff16021790555091602001919060010190613280565b5b5090506132e691906132ea565b5090565b61332a91905b8082111561332657600081816101000a81549073ffffffffffffffffffffffffffffffffffffffff0219169055506001016132f0565b5090565b905600a165627a7a72305820a197c2ad02871d7d1f3b4acc7e2ce60ead9d9413c3c4a038fd22679debf08f7f0029",
  "source": "pragma solidity ^0.4.22;\n\n//TODO : Max Amount Bet.\n//TODO : Handle suspended users for all methods.\n//TODO : Store Games in a Map instead of array. See if that has any advantages.\n//TODO : Upgrade syntax to 0.4.22 for constructor warning\n\ncontract owned {\n    \n    address owner;\n    modifier onlyOwner()\n    {\n        require(msg.sender == owner);\n        _;\n    }\n}\n\ncontract priced {\n\n    modifier costs(uint256 price) {\n        require(msg.value >= price);\n        _;\n    }\n}\n\ncontract SplitStealContract is owned, priced {\n\n    //Global Variables\n    bool registerationOpen = false;\n    bool playStarted = false;\n    bool revealing = false;\n    bool lastGameFinished = true;\n    uint256 REGISTRATION_COST = 5 * 10**14; // 0.0005 Ether\n    uint256 MINIMUM_COST_OF_BET = 5 * 10**15; // 0.005 Ether\n    uint256 ODD_PLAYER_BONUS_PERCENT = 10;\n    uint constant STEAL = 0;\n    uint constant SPLIT = 1;\n    mapping(address=>bool) suspended;\n\n    //Reward Matrix Parameters\n    uint D = 4;\n    uint K = 25;\n    \n    //Events\n    event RegisterationOpened(uint indexed _gameNumber);\n    event Registered(uint indexed _gameNumber, address indexed _player, uint256 _betAmount);\n    event RegisterationClosed(uint indexed _gameNumber);\n    event PlayStarted(uint indexed _gameNumber);\n    event Played(uint indexed _gameNumber, address _player, bytes32 _encryptedChoice);\n    event PlayStopped(uint indexed _gameNumber);\n    event RevealStart(uint indexed _gameNumber);\n    event RevealStop(uint indexed _gameNumber);\n    event Transferred(uint indexed _gameNumber,address _to, uint256 _amount);\n    event Paired(uint indexed _gameNumber, address indexed _player1, address indexed _player2, uint256 betAmount1, uint256 betAmount2);\n    event Disqualified(uint indexed _gameNumber, address indexed _player, bytes32 _encryptedChoice, uint _actualChoice, bytes32 _encryptedActualChoice);\n    event NewRewardMatrix(uint _n1, uint _n2, uint _n3, uint _d);\n    event NewRewardPercentage(uint _oldK, uint _k);\n    event NewOddPlayerBonus(uint256 _fromPercentage, uint256 _toPercentage);\n    event Suspended(address indexed _player);\n    event UnSuspended(address indexed _player);\n\n    //BET Struct\n    struct Bet {\n        bytes32 encryptedChoice;\n        uint256 betAmount;\n        uint actualChoice;\n    }\n\n    //GAME Struct\n    struct Game {\n        address[] players; \n        uint256 registrationCost;\n        uint256 oddPlayerBonusPercent;\n        uint256 k;\n        mapping(address=>bool) registered;\n        mapping(address=>bool) played;\n        mapping(address=>Bet) bets;\n        mapping(address=>address) pairs;\n        mapping(address=>bool) revealed;\n        mapping(address=>bool) disqualified;\n        mapping(address=>bool) claimedReward;\n        mapping(address=>uint256) reward;\n    }\n\n    //All Games played\n    Game[] games;\n\n    //Current Game index\n    uint gameIndex;\n\n    constructor() public {\n        owner = msg.sender;\n    }   \n\n    function fund() payable external {\n    }\n\n    // UTILITY METHODS STARTS\n    function isEven(uint num) private pure returns(bool _isEven) {\n        uint halfNum = num / 2;\n        return (halfNum * 2) == num;\n    }\n    // UTILITY METHODS END\n\n    // ADMIN METHODS START\n    function changeOwner(address _to) public onlyOwner {\n        owner = _to;\n    }\n\n    function transferBalanceToOwner() public onlyOwner {\n        transferToOwner(address(this).balance);\n    }\n    \n    function transferToOwner(uint256 amountInWei) public onlyOwner {\n        require(address(this).balance >= amountInWei);\n        owner.transfer(amountInWei);\n    }\n\n    function suspend(address _player) public onlyOwner returns(bool _suspended){\n        require(!suspended[_player]);\n        suspended[_player] = true;\n        emit Suspended(_player);\n        return true;\n    }\n\n    function unSuspend(address _player) public onlyOwner returns(bool _unSuspended){\n        require(suspended[_player]);\n        suspended[_player] = false;\n        emit UnSuspended(_player);\n        return true;\n    }\n\n    function setOddPlayerBonusPercent(uint256 _percentage) public onlyOwner {\n        uint256 oldPercentage = ODD_PLAYER_BONUS_PERCENT;\n        ODD_PLAYER_BONUS_PERCENT = _percentage;\n        emit NewOddPlayerBonus(oldPercentage, _percentage);\n    }\n\n    function setRewardPercentageK(uint _k) public onlyOwner {\n        uint oldK = K;\n        K = _k;\n        emit NewRewardPercentage(oldK, K);\n    }\n\n    function sendEther() external payable onlyOwner {\n    }\n\n    //ADMIN METHODS STOP\n\n    //VIEW APIs STARTS\n\n    function getOwner() public view returns(address _owner) {\n        return owner;\n    }\n\n    function getContractBalance() public view returns(uint256 _balance) {\n        return address(this).balance;\n    }\n\n    function getRewardMatrix() public view returns(uint _k, uint _oddPlayerBonusPercentage) {\n        return (K, ODD_PLAYER_BONUS_PERCENT);\n    }\n\n    function getGameState() public view returns(uint256 _gameNumber, bool _registerationOpen, bool _playStarted, bool _revealing, bool _lastGameFinished, uint256 _totalPlayers) {\n        uint totalPlayers = 0;\n        if (games.length > 0) {\n            totalPlayers = games[games.length-1].players.length;\n        }\n        return (games.length, registerationOpen, playStarted, revealing, lastGameFinished, totalPlayers);\n    }\n\n    function getPlayerState(uint gameNumber) public view returns(bool _suspended, bool _registered, bool _played, bool _revealed, bool _disqualified, bool _claimedReward,  address _opponent, uint256 _betAmount, uint256 _reward) {\n        require(games.length >= gameNumber);\n        uint index = gameNumber - 1;\n        address player = msg.sender;\n        address opponent = games[index].pairs[player];\n        uint256 betAmount = games[index].bets[player].betAmount;\n        uint256 opponentBetAmount = 0;\n        if (opponent != address(0)) {\n            opponentBetAmount = games[index].bets[opponent].betAmount;\n        }\n        return (suspended[player], games[index].registered[player], games[index].played[player], games[index].revealed[player], games[index].disqualified[player], games[index].claimedReward[player], opponent, betAmount, games[index].reward[player] );\n    }\n    //VIEW APIs ENDS\n\n    //GAME PLAY STARTS\n    function startRegistration() public onlyOwner {\n        require(!playStarted);\n        require(!registerationOpen);\n        require(lastGameFinished);\n        lastGameFinished = false;\n        registerationOpen = true;\n        games.push(Game(new address[](0), REGISTRATION_COST, ODD_PLAYER_BONUS_PERCENT, K));\n        gameIndex = games.length - 1;\n        emit RegisterationOpened(games.length);\n    }\n\n    function bet(uint256 _betAmount) public payable costs(_betAmount) returns(bool _accepted) {\n        require(!suspended[msg.sender]);\n        require(_betAmount > MINIMUM_COST_OF_BET);\n        require(registerationOpen);\n        require(!games[gameIndex].registered[msg.sender]);\n        games[gameIndex].registered[msg.sender] = true;\n        games[gameIndex].bets[msg.sender] = Bet(\"\",_betAmount,0);\n        games[gameIndex].players.push(msg.sender);\n        uint totalPlayers = games[gameIndex].players.length;\n        if( isEven(totalPlayers) && totalPlayers != 0) {\n            address player1 = games[gameIndex].players[totalPlayers-2];\n            address player2 = games[gameIndex].players[totalPlayers-1];  \n            games[gameIndex].pairs[player1] = player2;\n            games[gameIndex].pairs[player2] = player1;\n            emit Paired(games.length, player1, player2, games[gameIndex].bets[player1].betAmount, _betAmount);\n        }\n        emit Registered(games.length, msg.sender, _betAmount);\n        return true;\n    }\n\n    function startPlay() public onlyOwner {\n        require(registerationOpen);\n        require(!playStarted);\n        playStarted = true;\n        registerationOpen = false;\n        emit RegisterationClosed(games.length);\n        emit PlayStarted(games.length);\n    }\n\n    function submit(bytes32 _encryptedChoice) public returns(bool _accepted)  {\n        require(games[gameIndex].registered[msg.sender]);\n        require(!games[gameIndex].played[msg.sender]);\n        require(playStarted);\n        games[gameIndex].played[msg.sender] = true;\n        games[gameIndex].bets[msg.sender].encryptedChoice = _encryptedChoice;\n        emit Played(games.length, msg.sender, _encryptedChoice);\n        return true;\n    }\n\n    function startReveal() public onlyOwner {\n        require(playStarted);\n        require(!revealing);\n        playStarted = false;\n        revealing = true;\n        emit PlayStopped(games.length);\n        emit RevealStart(games.length);\n    }\n\n    function reveal(uint256 _choice) public returns(bool _accepted){\n        require(games[gameIndex].registered[msg.sender]);\n        require(games[gameIndex].played[msg.sender]);\n        require(!games[gameIndex].revealed[msg.sender]);\n        require(revealing);\n        games[gameIndex].revealed[msg.sender] = true;\n        games[gameIndex].bets[msg.sender].actualChoice = _choice;\n        bytes32 encryptedChoice = games[gameIndex].bets[msg.sender].encryptedChoice;\n        bytes32 encryptedActualChoice = keccak256(_choice);\n        if( encryptedActualChoice != encryptedChoice) {\n            games[gameIndex].disqualified[msg.sender] = true;\n            emit Disqualified(games.length, msg.sender, encryptedChoice, _choice, encryptedActualChoice);\n            return false;\n        }\n        return true;\n    }\n\n    function stopReveal() public onlyOwner {\n        require(revealing);\n        revealing = false;\n        lastGameFinished = true;\n        emit RevealStop(games.length);\n    }\n\n    //GAME PLAY STOPS\n\n\n    //REWARD WITHDRAW STARTS\n    function ethTransfer(uint gameNumber, address _to, uint256 _amount) private {\n        require(!suspended[_to]);\n        require(_amount > 0);\n        require(_to != address(0));\n        //Take game Commission\n        uint256 amount = _amount - games[gameNumber-1].registrationCost;\n        require(address(this).balance >= amount);\n        _to.transfer(amount);\n        emit Transferred(gameNumber, _to, amount);\n    }\n\n\n    //Withdraw Reward Amount\n    function claimRewardK(uint gameNumber) public returns(bool _claimedReward)  {\n        require(lastGameFinished || games.length > gameNumber);\n        Game storage game = games[gameNumber-1];\n        require(!game.disqualified[msg.sender]);\n        require(game.registered[msg.sender]);\n        require(game.played[msg.sender]);\n        require(game.revealed[msg.sender]);\n        require(!game.claimedReward[msg.sender]);\n        \n        address player1 = msg.sender;\n        address player2 = game.pairs[player1];\n        \n        if (player2 == address(0)) {\n            //Odd Player1 , Pay back.\n            //Give back extra % of bet amount\n            ethTransfer(gameNumber, player1, ((100 + game.oddPlayerBonusPercent) * game.bets[player1].betAmount) / 100);\n            game.reward[player1] = reward;\n            game.claimedReward[msg.sender] = true;\n            return true;\n        }\n        if(game.disqualified[player2]) {\n            uint256 reward = ((100 + game.k) * game.bets[player1].betAmount) / 100;\n            ethTransfer(gameNumber, player1, reward);\n            game.reward[player1] = reward;\n            game.claimedReward[msg.sender] = true;\n            return true;\n        }\n        if ( !isEven(game.bets[player1].actualChoice) && !isEven(game.bets[player2].actualChoice) ) { // Split Split\n            reward = (game.bets[player1].betAmount + game.bets[player2].betAmount) / 2;\n            ethTransfer(gameNumber, player1, reward);\n            game.reward[player1] = reward;\n            game.claimedReward[msg.sender] = true;\n            return true;\n        }\n        if( !isEven(game.bets[player1].actualChoice) && isEven(game.bets[player2].actualChoice) ) { // Split Steal\n            game.reward[player1] = 0;\n            game.claimedReward[msg.sender] = true;\n            return true;\n        }\n        if( isEven(game.bets[player1].actualChoice) && !isEven(game.bets[player2].actualChoice) ) { // Steal Split\n            reward = (((100 + game.k) * game.bets[player1].betAmount)/100);\n            ethTransfer(gameNumber, player1, reward);\n            game.reward[player1] = reward;\n            game.claimedReward[msg.sender] = true;\n            return true;\n        }\n        if( isEven(game.bets[player1].actualChoice) && isEven(game.bets[player2].actualChoice) ) { // Steal Steal\n            reward = 0;\n            if( game.bets[player1].betAmount > game.bets[player2].betAmount) {\n                (((100 + game.k) * (game.bets[player1].betAmount - game.bets[player2].betAmount)) / 100 );\n            }\n            ethTransfer(gameNumber, player1, reward);\n            game.reward[player1] = reward;\n            game.claimedReward[msg.sender] = true;\n            return true;\n        }\n    }\n\n    //REWARD WITHDRAW ENDS\n\n}",
  "sourcePath": "/Users/rajat.mathur/git/blockchain-handson/Split-or-Steal-Game/truffle/contracts/SplitStealContract.sol",
  "compiler": {
    "name": "solc",
    "version": "0.4.22+commit.4cb486ee.Emscripten.clang"
  },
  "schemaVersion": "1.0.1",
  "updatedAt": "2018-05-04T03:09:06.766Z"
}