{
  "contractName": "SplitStealContract",
  "abi": [
    {
      "constant": false,
      "inputs": [],
      "name": "startRegistration",
      "outputs": [],
      "payable": false,
      "stateMutability": "nonpayable",
      "type": "function"
    },
    {
      "constant": false,
      "inputs": [],
      "name": "register",
      "outputs": [],
      "payable": true,
      "stateMutability": "payable",
      "type": "function"
    },
    {
      "constant": false,
      "inputs": [
        {
          "name": "_to",
          "type": "uint256"
        }
      ],
      "name": "changeRegisterationCost",
      "outputs": [],
      "payable": false,
      "stateMutability": "nonpayable",
      "type": "function"
    },
    {
      "constant": false,
      "inputs": [],
      "name": "startPlay",
      "outputs": [],
      "payable": false,
      "stateMutability": "nonpayable",
      "type": "function"
    },
    {
      "constant": false,
      "inputs": [
        {
          "name": "_to",
          "type": "address"
        },
        {
          "name": "_amount",
          "type": "uint256"
        }
      ],
      "name": "ethTransfer",
      "outputs": [],
      "payable": false,
      "stateMutability": "nonpayable",
      "type": "function"
    },
    {
      "constant": false,
      "inputs": [
        {
          "name": "_choice",
          "type": "uint256"
        },
        {
          "name": "_betAmount",
          "type": "uint256"
        }
      ],
      "name": "bet",
      "outputs": [],
      "payable": true,
      "stateMutability": "payable",
      "type": "function"
    },
    {
      "constant": false,
      "inputs": [
        {
          "name": "_to",
          "type": "uint256"
        }
      ],
      "name": "changeMinumumBet",
      "outputs": [],
      "payable": false,
      "stateMutability": "nonpayable",
      "type": "function"
    },
    {
      "constant": false,
      "inputs": [],
      "name": "reveal",
      "outputs": [],
      "payable": false,
      "stateMutability": "nonpayable",
      "type": "function"
    },
    {
      "constant": false,
      "inputs": [
        {
          "name": "_to",
          "type": "address"
        }
      ],
      "name": "changeOwner",
      "outputs": [],
      "payable": false,
      "stateMutability": "nonpayable",
      "type": "function"
    },
    {
      "constant": false,
      "inputs": [],
      "name": "stopRegisteration",
      "outputs": [],
      "payable": false,
      "stateMutability": "nonpayable",
      "type": "function"
    },
    {
      "constant": false,
      "inputs": [],
      "name": "stopPlay",
      "outputs": [],
      "payable": false,
      "stateMutability": "nonpayable",
      "type": "function"
    },
    {
      "inputs": [],
      "payable": false,
      "stateMutability": "nonpayable",
      "type": "constructor"
    },
    {
      "anonymous": false,
      "inputs": [
        {
          "indexed": false,
          "name": "_time_open_for",
          "type": "uint256"
        }
      ],
      "name": "RegisterationOpened",
      "type": "event"
    },
    {
      "anonymous": false,
      "inputs": [
        {
          "indexed": false,
          "name": "_player",
          "type": "address"
        }
      ],
      "name": "Registered",
      "type": "event"
    },
    {
      "anonymous": false,
      "inputs": [],
      "name": "RegisterationClosed",
      "type": "event"
    },
    {
      "anonymous": false,
      "inputs": [
        {
          "indexed": false,
          "name": "_time_open_for",
          "type": "uint256"
        }
      ],
      "name": "PlayStarted",
      "type": "event"
    },
    {
      "anonymous": false,
      "inputs": [
        {
          "indexed": false,
          "name": "_player",
          "type": "address"
        },
        {
          "indexed": false,
          "name": "choice",
          "type": "uint256"
        },
        {
          "indexed": false,
          "name": "_betAmount",
          "type": "uint256"
        }
      ],
      "name": "Played",
      "type": "event"
    },
    {
      "anonymous": false,
      "inputs": [],
      "name": "PlayStopped",
      "type": "event"
    },
    {
      "anonymous": false,
      "inputs": [
        {
          "indexed": false,
          "name": "_matches",
          "type": "address[2][]"
        },
        {
          "indexed": false,
          "name": "_bets",
          "type": "uint256[2][]"
        }
      ],
      "name": "GameFished",
      "type": "event"
    },
    {
      "anonymous": false,
      "inputs": [
        {
          "indexed": false,
          "name": "_from",
          "type": "address"
        },
        {
          "indexed": false,
          "name": "_to",
          "type": "address"
        },
        {
          "indexed": false,
          "name": "_amount",
          "type": "uint256"
        }
      ],
      "name": "Transferred",
      "type": "event"
    }
  ],
  "bytecode": "0x606060405260008060146101000a81548160ff02191690831515021790555060008060156101000a81548160ff0219169083151502179055506001600060166101000a81548160ff02191690831515021790555060008060176101000a81548160ff0219169083151502179055506601c6bf52634000600155662386f26fc10000600255341561008e57600080fd5b336000806101000a81548173ffffffffffffffffffffffffffffffffffffffff021916908373ffffffffffffffffffffffffffffffffffffffff1602179055506122a1806100dd6000396000f3006060604052600436106100af576000357c0100000000000000000000000000000000000000000000000000000000900463ffffffff16806310b86695146100b45780631aa3a008146100c957806322ec9716146100d35780632b94af15146100f65780634f95a04b1461010b5780636ffcc7191461014d578063a28818b91461016e578063a475b5dd14610191578063a6f9dae1146101a6578063cdabe94e146101df578063fda567a7146101f4575b600080fd5b34156100bf57600080fd5b6100c7610209565b005b6100d16103fb565b005b34156100de57600080fd5b6100f4600480803590602001909190505061060a565b005b341561010157600080fd5b61010961067e565b005b341561011657600080fd5b61014b600480803573ffffffffffffffffffffffffffffffffffffffff1690602001909190803590602001909190505061074a565b005b61016c600480803590602001909190803590602001909190505061093a565b005b341561017957600080fd5b61018f6004808035906020019091905050610bbd565b005b341561019c57600080fd5b6101a4610c31565b005b34156101b157600080fd5b6101dd600480803573ffffffffffffffffffffffffffffffffffffffff16906020019091905050611ede565b005b34156101ea57600080fd5b6101f2611f7c565b005b34156101ff57600080fd5b61020761203a565b005b6000809054906101000a900473ffffffffffffffffffffffffffffffffffffffff1673ffffffffffffffffffffffffffffffffffffffff163373ffffffffffffffffffffffffffffffffffffffff1614151561026457600080fd5b600060159054906101000a900460ff1615151561028057600080fd5b600060149054906101000a900460ff1615151561029c57600080fd5b600060169054906101000a900460ff1615156102b757600080fd5b60008060166101000a81548160ff0219169083151502179055506001600060146101000a81548160ff02191690831515021790555060606040519081016040528060006040518059106103075750595b90808252806020026020018201604052508152602001600060405180591061032c5750595b9080825280602002602001820160405250815260200160006040518059106103515750595b90808252806020026020018201604052508152506003600082015181600001908051906020019061038392919061212f565b5060208201518160010190805190602001906103a092919061212f565b5060408201518160020190805190602001906103bd92919061212f565b509050507fffe59794e969a0d35c082e3ff4de07a91f2024088f51624c5b856a970e947521601e6040518082815260200191505060405180910390a1565b60015480341015151561040d57600080fd5b600060149054906101000a900460ff16151561042857600080fd5b6003800160003373ffffffffffffffffffffffffffffffffffffffff1673ffffffffffffffffffffffffffffffffffffffff16815260200190815260200160002060009054906101000a900460ff1615151561048357600080fd5b6000809054906101000a900473ffffffffffffffffffffffffffffffffffffffff1673ffffffffffffffffffffffffffffffffffffffff166108fc349081150290604051600060405180830381858888f1935050505015156104e457600080fd5b60016003800160003373ffffffffffffffffffffffffffffffffffffffff1673ffffffffffffffffffffffffffffffffffffffff16815260200190815260200160002060006101000a81548160ff0219169083151502179055506003600001805480600101828161055591906121b9565b9160005260206000209001600033909190916101000a81548173ffffffffffffffffffffffffffffffffffffffff021916908373ffffffffffffffffffffffffffffffffffffffff160217905550507f2d3734a8e47ac8316e500ac231c90a6e1848ca2285f40d07eaa52005e4b3a0e933604051808273ffffffffffffffffffffffffffffffffffffffff1673ffffffffffffffffffffffffffffffffffffffff16815260200191505060405180910390a150565b6000809054906101000a900473ffffffffffffffffffffffffffffffffffffffff1673ffffffffffffffffffffffffffffffffffffffff163373ffffffffffffffffffffffffffffffffffffffff1614151561066557600080fd5b60008111151561067457600080fd5b8060018190555050565b6000809054906101000a900473ffffffffffffffffffffffffffffffffffffffff1673ffffffffffffffffffffffffffffffffffffffff163373ffffffffffffffffffffffffffffffffffffffff161415156106d957600080fd5b600060159054906101000a900460ff161515156106f557600080fd5b6001600060156101000a81548160ff0219169083151502179055507f75ecbbcf5acf9fc04b7b54b9c241f8bb19d1fdd64aba93c967ea036bcf2d1394601e6040518082815260200191505060405180910390a1565b6000809054906101000a900473ffffffffffffffffffffffffffffffffffffffff1673ffffffffffffffffffffffffffffffffffffffff163373ffffffffffffffffffffffffffffffffffffffff161415156107a557600080fd5b6000811115156107b457600080fd5b806000809054906101000a900473ffffffffffffffffffffffffffffffffffffffff1673ffffffffffffffffffffffffffffffffffffffff16311115156107fa57600080fd5b600073ffffffffffffffffffffffffffffffffffffffff168273ffffffffffffffffffffffffffffffffffffffff161415151561083657600080fd5b8173ffffffffffffffffffffffffffffffffffffffff166108fc829081150290604051600060405180830381858888f19350505050151561087657600080fd5b7fd1ba4ac2e2a11b5101f6cb4d978f514a155b421e8ec396d2d9abaf0bb02917ee6000809054906101000a900473ffffffffffffffffffffffffffffffffffffffff168383604051808473ffffffffffffffffffffffffffffffffffffffff1673ffffffffffffffffffffffffffffffffffffffff1681526020018373ffffffffffffffffffffffffffffffffffffffff1673ffffffffffffffffffffffffffffffffffffffff168152602001828152602001935050505060405180910390a15050565b8080341015151561094a57600080fd5b6003800160003373ffffffffffffffffffffffffffffffffffffffff1673ffffffffffffffffffffffffffffffffffffffff16815260200190815260200160002060009054906101000a900460ff1615156109a457600080fd5b600360040160003373ffffffffffffffffffffffffffffffffffffffff1673ffffffffffffffffffffffffffffffffffffffff16815260200190815260200160002060009054906101000a900460ff16151515610a0057600080fd5b600060159054906101000a900460ff161515610a1b57600080fd5b6000809054906101000a900473ffffffffffffffffffffffffffffffffffffffff1673ffffffffffffffffffffffffffffffffffffffff166108fc349081150290604051600060405180830381858888f193505050501515610a7c57600080fd5b6001600360040160003373ffffffffffffffffffffffffffffffffffffffff1673ffffffffffffffffffffffffffffffffffffffff16815260200190815260200160002060006101000a81548160ff021916908315150217905550604080519081016040528084815260200183815250600360050160003373ffffffffffffffffffffffffffffffffffffffff1673ffffffffffffffffffffffffffffffffffffffff16815260200190815260200160002060008201518160000155602082015181600101559050507f51a43823cb9b46fbb22469385351c1d9fd66d31c77e922e2e89f4f579453b79d338484604051808473ffffffffffffffffffffffffffffffffffffffff1673ffffffffffffffffffffffffffffffffffffffff168152602001838152602001828152602001935050505060405180910390a1505050565b6000809054906101000a900473ffffffffffffffffffffffffffffffffffffffff1673ffffffffffffffffffffffffffffffffffffffff163373ffffffffffffffffffffffffffffffffffffffff16141515610c1857600080fd5b600081111515610c2757600080fd5b8060028190555050565b6000610c3b6121e5565b610c436121f9565b60008060008060008060009054906101000a900473ffffffffffffffffffffffffffffffffffffffff1673ffffffffffffffffffffffffffffffffffffffff163373ffffffffffffffffffffffffffffffffffffffff16141515610ca657600080fd5b600060159054906101000a900460ff16151515610cc257600080fd5b600060149054906101000a900460ff16151515610cde57600080fd5b600060169054906101000a900460ff16151515610cfa57600080fd5b600060179054906101000a900460ff16151515610d1657600080fd5b6001600060176101000a81548160ff021916908315150217905550600097505b610ef660036060604051908101604052908160008201805480602002602001604051908101604052809291908181526020018280548015610dcc57602002820191906000526020600020905b8160009054906101000a900473ffffffffffffffffffffffffffffffffffffffff1673ffffffffffffffffffffffffffffffffffffffff1681526020019060010190808311610d82575b5050505050815260200160018201805480602002602001604051908101604052809291908181526020018280548015610e5a57602002820191906000526020600020905b8160009054906101000a900473ffffffffffffffffffffffffffffffffffffffff1673ffffffffffffffffffffffffffffffffffffffff1681526020019060010190808311610e10575b5050505050815260200160028201805480602002602001604051908101604052809291908181526020018280548015610ee857602002820191906000526020600020905b8160009054906101000a900473ffffffffffffffffffffffffffffffffffffffff1673ffffffffffffffffffffffffffffffffffffffff1681526020019060010190808311610e9e575b5050505050815250506120f8565b8810156110e8576003600401600060036000018a815481101515610f1657fe5b906000526020600020900160009054906101000a900473ffffffffffffffffffffffffffffffffffffffff1673ffffffffffffffffffffffffffffffffffffffff1673ffffffffffffffffffffffffffffffffffffffff16815260200190815260200160002060009054906101000a900460ff16156110375760036001018054806001018281610fa691906121b9565b9160005260206000209001600060036000018b815481101515610fc557fe5b906000526020600020900160009054906101000a900473ffffffffffffffffffffffffffffffffffffffff16909190916101000a81548173ffffffffffffffffffffffffffffffffffffffff021916908373ffffffffffffffffffffffffffffffffffffffff160217905550506110db565b6003600201805480600101828161104e91906121b9565b9160005260206000209001600060036000018b81548110151561106d57fe5b906000526020600020900160009054906101000a900473ffffffffffffffffffffffffffffffffffffffff16909190916101000a81548173ffffffffffffffffffffffffffffffffffffffff021916908373ffffffffffffffffffffffffffffffffffffffff160217905550505b8780600101985050610d36565b600097505b6112ad6003606060405190810160405290816000820180548060200260200160405190810160405280929190818152602001828054801561118357602002820191906000526020600020905b8160009054906101000a900473ffffffffffffffffffffffffffffffffffffffff1673ffffffffffffffffffffffffffffffffffffffff1681526020019060010190808311611139575b505050505081526020016001820180548060200260200160405190810160405280929190818152602001828054801561121157602002820191906000526020600020905b8160009054906101000a900473ffffffffffffffffffffffffffffffffffffffff1673ffffffffffffffffffffffffffffffffffffffff16815260200190600101908083116111c7575b505050505081526020016002820180548060200260200160405190810160405280929190818152602001828054801561129f57602002820191906000526020600020905b8160009054906101000a900473ffffffffffffffffffffffffffffffffffffffff1673ffffffffffffffffffffffffffffffffffffffff1681526020019060010190808311611255575b505050505081525050612107565b88101561182f576114746003606060405190810160405290816000820180548060200260200160405190810160405280929190818152602001828054801561134a57602002820191906000526020600020905b8160009054906101000a900473ffffffffffffffffffffffffffffffffffffffff1673ffffffffffffffffffffffffffffffffffffffff1681526020019060010190808311611300575b50505050508152602001600182018054806020026020016040519081016040528092919081815260200182805480156113d857602002820191906000526020600020905b8160009054906101000a900473ffffffffffffffffffffffffffffffffffffffff1673ffffffffffffffffffffffffffffffffffffffff168152602001906001019080831161138e575b505050505081526020016002820180548060200260200160405190810160405280929190818152602001828054801561146657602002820191906000526020600020905b8160009054906101000a900473ffffffffffffffffffffffffffffffffffffffff1673ffffffffffffffffffffffffffffffffffffffff168152602001906001019080831161141c575b505050505081525050612107565b6001890110156117535760036001018881548110151561149057fe5b906000526020600020900160009054906101000a900473ffffffffffffffffffffffffffffffffffffffff168760008151811015156114cb57fe5b9060200190602002015160028a8115156114e157fe5b046002811015156114ee57fe5b602002019073ffffffffffffffffffffffffffffffffffffffff16908173ffffffffffffffffffffffffffffffffffffffff168152505060036001016001890181548110151561153a57fe5b906000526020600020900160009054906101000a900473ffffffffffffffffffffffffffffffffffffffff1687600181518110151561157557fe5b9060200190602002015160028a81151561158b57fe5b0460028110151561159857fe5b602002019073ffffffffffffffffffffffffffffffffffffffff16908173ffffffffffffffffffffffffffffffffffffffff16815250506003600501600060036001018a8154811015156115e857fe5b906000526020600020900160009054906101000a900473ffffffffffffffffffffffffffffffffffffffff1673ffffffffffffffffffffffffffffffffffffffff1673ffffffffffffffffffffffffffffffffffffffff1681526020019081526020016000206000015486600081518110151561166157fe5b9060200190602002015160028a81151561167757fe5b0460028110151561168457fe5b60200201818152505060036005016000600360010160018b018154811015156116a957fe5b906000526020600020900160009054906101000a900473ffffffffffffffffffffffffffffffffffffffff1673ffffffffffffffffffffffffffffffffffffffff1673ffffffffffffffffffffffffffffffffffffffff1681526020019081526020016000206000015486600181518110151561172257fe5b9060200190602002015160028a81151561173857fe5b0460028110151561174557fe5b602002018181525050611824565b60036001018881548110151561176557fe5b906000526020600020900160009054906101000a900473ffffffffffffffffffffffffffffffffffffffff1694506118236003600101898154811015156117a857fe5b906000526020600020900160009054906101000a900473ffffffffffffffffffffffffffffffffffffffff16600360050160008873ffffffffffffffffffffffffffffffffffffffff1673ffffffffffffffffffffffffffffffffffffffff168152602001908152602001600020600101546001540161074a565b5b6002880197506110ed565b600097505b8551881015611d9857600186600081518110151561184e57fe5b906020019060200201518960028110151561186557fe5b60200201511480156118a15750600186600181518110151561188357fe5b906020019060200201518960028110151561189a57fe5b6020020151145b15611a0c5761198e600360050160008960008151811015156118bf57fe5b906020019060200201518b6002811015156118d657fe5b602002015173ffffffffffffffffffffffffffffffffffffffff1673ffffffffffffffffffffffffffffffffffffffff16815260200190815260200160002060010154600360050160008a600181518110151561192f57fe5b906020019060200201518c60028110151561194657fe5b602002015173ffffffffffffffffffffffffffffffffffffffff1673ffffffffffffffffffffffffffffffffffffffff16815260200190815260200160002060010154612116565b935060028481151561199c57fe5b0492506119d38760008151811015156119b157fe5b90602001906020020151896002811015156119c857fe5b60200201518461074a565b611a078760018151811015156119e557fe5b90602001906020020151896002811015156119fc57fe5b60200201518461074a565b611d8b565b6001866000815181101515611a1d57fe5b9060200190602002015189600281101515611a3457fe5b6020020151148015611a7057506000866001815181101515611a5257fe5b9060200190602002015189600281101515611a6957fe5b6020020151145b15611b945760036005016000886000815181101515611a8b57fe5b906020019060200201518a600281101515611aa257fe5b602002015173ffffffffffffffffffffffffffffffffffffffff1673ffffffffffffffffffffffffffffffffffffffff16815260200190815260200160002060010154915060036005016000886001815181101515611afd57fe5b906020019060200201518a600281101515611b1457fe5b602002015173ffffffffffffffffffffffffffffffffffffffff1673ffffffffffffffffffffffffffffffffffffffff168152602001908152602001600020600101549050611b8f876001815181101515611b6b57fe5b9060200190602002015189600281101515611b8257fe5b602002015182840161074a565b611d8b565b6000866000815181101515611ba557fe5b9060200190602002015189600281101515611bbc57fe5b6020020151148015611bf857506001866001815181101515611bda57fe5b9060200190602002015189600281101515611bf157fe5b6020020151145b15611d1c5760036005016000886001815181101515611c1357fe5b906020019060200201518a600281101515611c2a57fe5b602002015173ffffffffffffffffffffffffffffffffffffffff1673ffffffffffffffffffffffffffffffffffffffff16815260200190815260200160002060010154915060036005016000886000815181101515611c8557fe5b906020019060200201518a600281101515611c9c57fe5b602002015173ffffffffffffffffffffffffffffffffffffffff1673ffffffffffffffffffffffffffffffffffffffff168152602001908152602001600020600101549050611d17876000815181101515611cf357fe5b9060200190602002015189600281101515611d0a57fe5b602002015182840161074a565b611d8b565b6000866000815181101515611d2d57fe5b9060200190602002015189600281101515611d4457fe5b6020020151148015611d8057506000866001815181101515611d6257fe5b9060200190602002015189600281101515611d7957fe5b6020020151145b15611d8a57611d8b565b5b8780600101985050611834565b6001600060166101000a81548160ff02191690831515021790555060008060176101000a81548160ff0219169083151502179055507fb0c7b81ff5918a8abe019c808635eae229ac01c7ef0c22633ea8d67054623c0787876040518080602001806020018381038352858181518152602001915080516000925b81841015611e5d57828490602001906020020151600260200280838360005b83811015611e4c578082015181840152602081019050611e31565b505050509050019260010192611e12565b925050508381038252848181518152602001915080516000925b81841015611ec257828490602001906020020151600260200280838360005b83811015611eb1578082015181840152602081019050611e96565b505050509050019260010192611e77565b9250505094505050505060405180910390a15050505050505050565b6000809054906101000a900473ffffffffffffffffffffffffffffffffffffffff1673ffffffffffffffffffffffffffffffffffffffff163373ffffffffffffffffffffffffffffffffffffffff16141515611f3957600080fd5b806000806101000a81548173ffffffffffffffffffffffffffffffffffffffff021916908373ffffffffffffffffffffffffffffffffffffffff16021790555050565b6000809054906101000a900473ffffffffffffffffffffffffffffffffffffffff1673ffffffffffffffffffffffffffffffffffffffff163373ffffffffffffffffffffffffffffffffffffffff16141515611fd757600080fd5b600060149054906101000a900460ff161515611ff257600080fd5b60008060146101000a81548160ff0219169083151502179055507f3c26ab7aed157e6b332e8256b4b196c5c21fb348721efc30d937b2f9899113a060405160405180910390a1565b6000809054906101000a900473ffffffffffffffffffffffffffffffffffffffff1673ffffffffffffffffffffffffffffffffffffffff163373ffffffffffffffffffffffffffffffffffffffff1614151561209557600080fd5b600060159054906101000a900460ff1615156120b057600080fd5b60008060156101000a81548160ff0219169083151502179055507f48ea1bfef87e9bd42485e8b8ca6e3fd755637190d6bf7a2606532ce7fb7db61a60405160405180910390a1565b60008160000151519050919050565b60008160200151519050919050565b600060028281151561212457fe5b048301905092915050565b8280548282559060005260206000209081019282156121a8579160200282015b828111156121a75782518260006101000a81548173ffffffffffffffffffffffffffffffffffffffff021916908373ffffffffffffffffffffffffffffffffffffffff1602179055509160200191906001019061214f565b5b5090506121b5919061220d565b5090565b8154818355818115116121e0578183600052602060002091820191016121df9190612250565b5b505050565b602060405190810160405280600081525090565b602060405190810160405280600081525090565b61224d91905b8082111561224957600081816101000a81549073ffffffffffffffffffffffffffffffffffffffff021916905550600101612213565b5090565b90565b61227291905b8082111561226e576000816000905550600101612256565b5090565b905600a165627a7a72305820ef211c3ee7a11a6d569699954fda65234674583421c8701663d804065c4ff2b10029",
  "source": "pragma solidity ^0.4.21;\n\ncontract owned {\n    \n    address owner;\n    modifier onlyOwner()\n    {\n        require(msg.sender == owner);\n        _;\n    }\n}\n\ncontract priced {\n\n    modifier costs(uint256 price) {\n        require(msg.value >= price);\n        _;\n    }\n}\n\ncontract SplitStealContract is owned, priced {\n\n    //Global Variables\n    bool registerationOpen = false;\n    bool playStarted = false;\n    bool lastGameFinished = true;\n    bool revealing = false;\n    uint256 REGISTRATION_COST = 5 * 10**14; // 0.0005 Ether\n    uint256 MINIMUM_COST_OF_BET = 10**16; // 0.01 Ether\n    uint constant STEAL = 0;\n    uint constant SPLIT = 1;\n    \n    //Events\n    event RegisterationOpened(uint256 _time_open_for);\n    event Registered(address _player);\n    event RegisterationClosed();\n    event PlayStarted(uint256 _time_open_for);\n    event Played(address _player, uint choice, uint256 _betAmount);\n    event PlayStopped();\n    event GameFished(address[2][] _matches, uint256[2][] _bets);\n    event Transferred(address _from, address _to, uint256 _amount);\n    \n    //BET Struct\n    struct Bet {\n        uint choice;\n        uint256 betAmount;\n    }\n\n    //GAME Struct\n    struct Game {\n        address[] players; \n        address[] finalPlayers; \n        address[] notPlayedPlayers; \n        mapping(address=>bool) registered;\n        mapping(address=>bool) played;\n        mapping(address=>Bet) bets;\n    }\n\n    Game currentGame;\n\n    function SplitStealContract() public {\n        owner = msg.sender;\n    }   \n\n    function changeOwner(address _to) public onlyOwner {\n        owner = _to;\n    }\n\n    function changeRegisterationCost(uint256 _to) public onlyOwner {\n        require(_to > 0);\n        REGISTRATION_COST = _to;\n    }\n\n    function changeMinumumBet(uint256 _to) public onlyOwner {\n        require(_to > 0);\n        MINIMUM_COST_OF_BET = _to;\n    }\n\n    function startRegistration() public onlyOwner {\n        require(!playStarted);\n        require(!registerationOpen);\n        require(lastGameFinished);\n        lastGameFinished = false;\n        registerationOpen = true;\n        currentGame = Game(new address[](0), new address[](0), new address[](0));\n        emit RegisterationOpened(30);\n    }\n\n    function register() public payable costs(REGISTRATION_COST) {\n        require(registerationOpen);\n        require(!currentGame.registered[msg.sender]);\n        owner.transfer(msg.value);\n        currentGame.registered[msg.sender] = true;\n        currentGame.players.push(msg.sender);\n        emit Registered(msg.sender);\n    }\n\n    function stopRegisteration() public onlyOwner {\n        require(registerationOpen);\n        registerationOpen = false;\n        emit RegisterationClosed();\n    }\n\n    function startPlay() public onlyOwner {\n        require(!playStarted);\n        playStarted = true;\n        emit PlayStarted(30);\n    }\n\n    function bet(uint _choice, uint256 _betAmount) public payable costs(_betAmount) {\n        require(currentGame.registered[msg.sender]);\n        require(!currentGame.played[msg.sender]);\n        require(playStarted);\n        owner.transfer(msg.value);\n        currentGame.played[msg.sender] = true;\n        currentGame.bets[msg.sender] = Bet(_choice, _betAmount);\n        emit Played(msg.sender, _choice, _betAmount);\n    }\n\n    function stopPlay() public onlyOwner {\n        require(playStarted);\n        playStarted = false;\n        emit PlayStopped();\n    }\n\n    function getPlayerCount(Game _game) private pure returns(uint256 count) {\n        return _game.players.length;\n    }\n\n    function getFinalPlayerCount(Game _game) private pure returns(uint256 count) {\n        return _game.finalPlayers.length;\n    }\n\n    function calculateReward(uint256 _x, uint256 _y) private pure returns (uint256 _reward) {\n        //F(x,y) = Reward Function\n        //TODO : WORK ON THIS\n        return (_x + _y / 2);\n    }\n\n    function ethTransfer(address _to, uint256 _amount) public onlyOwner {\n        require(_amount > 0);\n        require(owner.balance > _amount);\n        require(_to != address(0));\n        _to.transfer(_amount);\n        emit Transferred(owner, _to, _amount);\n    }\n\n    function reveal() public onlyOwner {\n        require(!playStarted);\n        require(!registerationOpen);\n        require(!lastGameFinished);\n        require(!revealing);\n        revealing = true;\n\n        for ( uint index = 0; index < getPlayerCount(currentGame); index++ ) {\n            if (currentGame.played[currentGame.players[index]]) {\n                currentGame.finalPlayers.push(currentGame.players[index]);\n            } else {\n                currentGame.notPlayedPlayers.push(currentGame.players[index]);\n            }\n        }\n\n        address[2][] memory matches;\n        uint[2][] memory bets;\n\n        for ( index = 0; index < getFinalPlayerCount(currentGame); index = index + 2) {\n            \n            if(index + 1 < getFinalPlayerCount(currentGame)) {\n                matches[0][index/2] = currentGame.finalPlayers[index];\n                matches[1][index/2] = currentGame.finalPlayers[index+1];\n                bets[0][index/2] = currentGame.bets[currentGame.finalPlayers[index]].choice;\n                bets[1][index/2] = currentGame.bets[currentGame.finalPlayers[index+1]].choice;\n            } else {\n                address playerAddress = currentGame.finalPlayers[index];\n                //ODD Player reward him since player incurred gas to play.\n                //TODO : Understand how to send ether from owner\n                ethTransfer(currentGame.finalPlayers[index], REGISTRATION_COST + currentGame.bets[playerAddress].betAmount);\n            }  \n        }\n\n        for ( index = 0 ; index < bets.length; index++ ) {\n            if ( bets[0][index] == SPLIT && bets[1][index] == SPLIT ) {\n                //GameOwner has to give back betAmounts along with reward to both players\n                //Both players won\n                //TODO : Implement\n                uint256 reward = calculateReward(currentGame.bets[matches[0][index]].betAmount, currentGame.bets[matches[1][index]].betAmount);\n                uint256 playerReward = reward / 2;\n                ethTransfer(matches[0][index], playerReward);\n                ethTransfer(matches[1][index], playerReward);\n                continue;\n            }\n            if( bets[0][index] == SPLIT && bets[1][index] == STEAL ) {\n                //matches[1][index] won and will get it's betAmount along with matches[0][index]'s betAmount\n                //TODO : Implement\n                uint256 loosersBetAmount = currentGame.bets[matches[0][index]].betAmount;\n                uint256 winnersBetAmount = currentGame.bets[matches[1][index]].betAmount;\n                ethTransfer(matches[1][index], loosersBetAmount + winnersBetAmount);\n                continue;\n            }\n            if( bets[0][index] == STEAL && bets[1][index] == SPLIT ) {\n                //matches[0][index] won and will get it's betAmount along with matches[1][index]'s betAmount\n                //TODO : Implement\n                loosersBetAmount = currentGame.bets[matches[1][index]].betAmount;\n                winnersBetAmount = currentGame.bets[matches[0][index]].betAmount;\n                ethTransfer(matches[0][index], loosersBetAmount + winnersBetAmount);\n                continue;\n            }\n            if( bets[0][index] == STEAL && bets[1][index] == STEAL ) {\n                //GameOwner has alrady collected there betAmounts\n                //Both player loose\n                continue;\n            }\n        }\n\n        lastGameFinished = true;\n        revealing = false;\n        emit GameFished(matches, bets);\n\n    }\n\n}\n\n",
  "sourcePath": "/Users/rajat.mathur/git/blockchain-handson/Split-or-Steal-Game/truffle/contracts/SplitStealContract.sol",
  "compiler": {
    "name": "solc",
    "version": "0.4.21+commit.dfe3193c.Emscripten.clang"
  },
  "schemaVersion": "1.0.1",
  "updatedAt": "2018-04-11T12:19:32.469Z"
}